{
  "contractName": "DrugTraceability",
  "abi": [
    {
      "inputs": [],
      "stateMutability": "nonpayable",
      "type": "constructor"
    },
    {
      "inputs": [],
      "name": "DataHashEmpty",
      "type": "error"
    },
    {
      "inputs": [],
      "name": "DrugIdEmpty",
      "type": "error"
    },
    {
      "inputs": [],
      "name": "DrugIdExists",
      "type": "error"
    },
    {
      "inputs": [],
      "name": "DrugNotFound",
      "type": "error"
    },
    {
      "inputs": [],
      "name": "DrugRecalled",
      "type": "error"
    },
    {
      "inputs": [],
      "name": "InvalidExpiryDate",
      "type": "error"
    },
    {
      "inputs": [],
      "name": "SignatureIdEmpty",
      "type": "error"
    },
    {
      "inputs": [],
      "name": "Unauthorized",
      "type": "error"
    },
    {
      "anonymous": false,
      "inputs": [
        {
          "indexed": true,
          "internalType": "string",
          "name": "signatureId",
          "type": "string"
        },
        {
          "indexed": true,
          "internalType": "string",
          "name": "targetType",
          "type": "string"
        },
        {
          "indexed": true,
          "internalType": "string",
          "name": "targetId",
          "type": "string"
        },
        {
          "indexed": false,
          "internalType": "address",
          "name": "signedBy",
          "type": "address"
        },
        {
          "indexed": false,
          "internalType": "string",
          "name": "dataHash",
          "type": "string"
        },
        {
          "indexed": false,
          "internalType": "uint256",
          "name": "timestamp",
          "type": "uint256"
        }
      ],
      "name": "DigitalSignatureRecorded",
      "type": "event"
    },
    {
      "anonymous": false,
      "inputs": [
        {
          "indexed": true,
          "internalType": "string",
          "name": "drugId",
          "type": "string"
        },
        {
          "indexed": true,
          "internalType": "address",
          "name": "from",
          "type": "address"
        },
        {
          "indexed": true,
          "internalType": "address",
          "name": "to",
          "type": "address"
        },
        {
          "indexed": false,
          "internalType": "uint256",
          "name": "timestamp",
          "type": "uint256"
        }
      ],
      "name": "DistributionRecorded",
      "type": "event"
    },
    {
      "anonymous": false,
      "inputs": [
        {
          "indexed": true,
          "internalType": "string",
          "name": "drugId",
          "type": "string"
        },
        {
          "indexed": false,
          "internalType": "string",
          "name": "name",
          "type": "string"
        },
        {
          "indexed": true,
          "internalType": "address",
          "name": "createdBy",
          "type": "address"
        },
        {
          "indexed": false,
          "internalType": "uint256",
          "name": "timestamp",
          "type": "uint256"
        }
      ],
      "name": "DrugBatchCreated",
      "type": "event"
    },
    {
      "anonymous": false,
      "inputs": [
        {
          "indexed": true,
          "internalType": "string",
          "name": "drugId",
          "type": "string"
        },
        {
          "indexed": false,
          "internalType": "string",
          "name": "reason",
          "type": "string"
        },
        {
          "indexed": true,
          "internalType": "address",
          "name": "recalledBy",
          "type": "address"
        },
        {
          "indexed": false,
          "internalType": "uint256",
          "name": "timestamp",
          "type": "uint256"
        }
      ],
      "name": "DrugBatchRecalled",
      "type": "event"
    },
    {
      "anonymous": false,
      "inputs": [
        {
          "indexed": true,
          "internalType": "string",
          "name": "drugId",
          "type": "string"
        },
        {
          "indexed": true,
          "internalType": "address",
          "name": "updatedBy",
          "type": "address"
        },
        {
          "indexed": false,
          "internalType": "uint256",
          "name": "timestamp",
          "type": "uint256"
        }
      ],
      "name": "DrugBatchUpdated",
      "type": "event"
    },
    {
      "anonymous": false,
      "inputs": [
        {
          "indexed": true,
          "internalType": "string",
          "name": "drugId",
          "type": "string"
        },
        {
          "indexed": true,
          "internalType": "address",
          "name": "verifier",
          "type": "address"
        },
        {
          "indexed": false,
          "internalType": "bool",
          "name": "isValid",
          "type": "bool"
        },
        {
          "indexed": false,
          "internalType": "uint256",
          "name": "timestamp",
          "type": "uint256"
        }
      ],
      "name": "DrugBatchVerified",
      "type": "event"
    },
    {
      "inputs": [],
      "name": "MAX_BATCH_SIZE",
      "outputs": [
        {
          "internalType": "uint256",
          "name": "",
          "type": "uint256"
        }
      ],
      "stateMutability": "view",
      "type": "function"
    },
    {
      "inputs": [
        {
          "internalType": "uint256",
          "name": "",
          "type": "uint256"
        }
      ],
      "name": "allDrugIds",
      "outputs": [
        {
          "internalType": "string",
          "name": "",
          "type": "string"
        }
      ],
      "stateMutability": "view",
      "type": "function"
    },
    {
      "inputs": [
        {
          "internalType": "string",
          "name": "",
          "type": "string"
        }
      ],
      "name": "digitalSignatures",
      "outputs": [
        {
          "internalType": "address",
          "name": "signedBy",
          "type": "address"
        },
        {
          "internalType": "uint64",
          "name": "timestamp",
          "type": "uint64"
        },
        {
          "internalType": "string",
          "name": "signatureId",
          "type": "string"
        },
        {
          "internalType": "string",
          "name": "targetType",
          "type": "string"
        },
        {
          "internalType": "string",
          "name": "targetId",
          "type": "string"
        },
        {
          "internalType": "string",
          "name": "dataHash",
          "type": "string"
        },
        {
          "internalType": "string",
          "name": "signature",
          "type": "string"
        },
        {
          "internalType": "string",
          "name": "certificateSerialNumber",
          "type": "string"
        }
      ],
      "stateMutability": "view",
      "type": "function"
    },
    {
      "inputs": [
        {
          "internalType": "string",
          "name": "",
          "type": "string"
        },
        {
          "internalType": "uint256",
          "name": "",
          "type": "uint256"
        }
      ],
      "name": "distributionHistory",
      "outputs": [
        {
          "internalType": "address",
          "name": "from",
          "type": "address"
        },
        {
          "internalType": "address",
          "name": "to",
          "type": "address"
        },
        {
          "internalType": "uint64",
          "name": "timestamp",
          "type": "uint64"
        },
        {
          "internalType": "string",
          "name": "location",
          "type": "string"
        },
        {
          "internalType": "string",
          "name": "status",
          "type": "string"
        },
        {
          "internalType": "string",
          "name": "notes",
          "type": "string"
        }
      ],
      "stateMutability": "view",
      "type": "function"
    },
    {
      "inputs": [
        {
          "internalType": "string",
          "name": "",
          "type": "string"
        }
      ],
      "name": "drugBatches",
      "outputs": [
        {
          "internalType": "address",
          "name": "createdBy",
          "type": "address"
        },
        {
          "internalType": "uint64",
          "name": "productionDate",
          "type": "uint64"
        },
        {
          "internalType": "uint64",
          "name": "expiryDate",
          "type": "uint64"
        },
        {
          "internalType": "uint64",
          "name": "createdAt",
          "type": "uint64"
        },
        {
          "internalType": "uint64",
          "name": "recallDate",
          "type": "uint64"
        },
        {
          "internalType": "bool",
          "name": "isActive",
          "type": "bool"
        },
        {
          "internalType": "bool",
          "name": "isRecalled",
          "type": "bool"
        },
        {
          "internalType": "string",
          "name": "drugId",
          "type": "string"
        },
        {
          "internalType": "string",
          "name": "name",
          "type": "string"
        },
        {
          "internalType": "string",
          "name": "activeIngredient",
          "type": "string"
        },
        {
          "internalType": "string",
          "name": "manufacturerId",
          "type": "string"
        },
        {
          "internalType": "string",
          "name": "batchNumber",
          "type": "string"
        },
        {
          "internalType": "string",
          "name": "qualityTestResult",
          "type": "string"
        },
        {
          "internalType": "string",
          "name": "qrCodeData",
          "type": "string"
        },
        {
          "internalType": "string",
          "name": "recallReason",
          "type": "string"
        }
      ],
      "stateMutability": "view",
      "type": "function"
    },
    {
      "inputs": [],
      "name": "owner",
      "outputs": [
        {
          "internalType": "address",
          "name": "",
          "type": "address"
        }
      ],
      "stateMutability": "view",
      "type": "function"
    },
    {
      "inputs": [
        {
          "internalType": "string",
          "name": "",
          "type": "string"
        },
        {
          "internalType": "uint256",
          "name": "",
          "type": "uint256"
        }
      ],
      "name": "targetSignatures",
      "outputs": [
        {
          "internalType": "string",
          "name": "",
          "type": "string"
        }
      ],
      "stateMutability": "view",
      "type": "function"
    },
    {
      "inputs": [
        {
          "internalType": "string",
          "name": "_drugId",
          "type": "string"
        },
        {
          "internalType": "string",
          "name": "_name",
          "type": "string"
        },
        {
          "internalType": "string",
          "name": "_activeIngredient",
          "type": "string"
        },
        {
          "internalType": "string",
          "name": "_manufacturerId",
          "type": "string"
        },
        {
          "internalType": "string",
          "name": "_batchNumber",
          "type": "string"
        },
        {
          "internalType": "uint256",
          "name": "_productionDate",
          "type": "uint256"
        },
        {
          "internalType": "uint256",
          "name": "_expiryDate",
          "type": "uint256"
        },
        {
          "internalType": "string",
          "name": "_qualityTestResult",
          "type": "string"
        },
        {
          "internalType": "string",
          "name": "_qrCodeData",
          "type": "string"
        }
      ],
      "name": "createDrugBatch",
      "outputs": [],
      "stateMutability": "nonpayable",
      "type": "function"
    },
    {
      "inputs": [
        {
          "internalType": "string[]",
          "name": "_drugIds",
          "type": "string[]"
        },
        {
          "internalType": "string[]",
          "name": "_names",
          "type": "string[]"
        },
        {
          "internalType": "string[]",
          "name": "_activeIngredients",
          "type": "string[]"
        },
        {
          "internalType": "string[]",
          "name": "_manufacturerIds",
          "type": "string[]"
        },
        {
          "internalType": "string[]",
          "name": "_batchNumbers",
          "type": "string[]"
        },
        {
          "internalType": "uint256[]",
          "name": "_productionDates",
          "type": "uint256[]"
        },
        {
          "internalType": "uint256[]",
          "name": "_expiryDates",
          "type": "uint256[]"
        },
        {
          "internalType": "string[]",
          "name": "_qualityTestResults",
          "type": "string[]"
        },
        {
          "internalType": "string[]",
          "name": "_qrCodeData",
          "type": "string[]"
        }
      ],
      "name": "createDrugBatchBatch",
      "outputs": [],
      "stateMutability": "nonpayable",
      "type": "function"
    },
    {
      "inputs": [
        {
          "internalType": "string",
          "name": "_drugId",
          "type": "string"
        },
        {
          "internalType": "string",
          "name": "_name",
          "type": "string"
        },
        {
          "internalType": "string",
          "name": "_activeIngredient",
          "type": "string"
        },
        {
          "internalType": "string",
          "name": "_qualityTestResult",
          "type": "string"
        }
      ],
      "name": "updateDrugBatch",
      "outputs": [],
      "stateMutability": "nonpayable",
      "type": "function"
    },
    {
      "inputs": [
        {
          "internalType": "string",
          "name": "_drugId",
          "type": "string"
        },
        {
          "internalType": "string",
          "name": "_reason",
          "type": "string"
        }
      ],
      "name": "recallDrugBatch",
      "outputs": [],
      "stateMutability": "nonpayable",
      "type": "function"
    },
    {
      "inputs": [
        {
          "internalType": "string",
          "name": "_drugId",
          "type": "string"
        },
        {
          "internalType": "address",
          "name": "_to",
          "type": "address"
        },
        {
          "internalType": "string",
          "name": "_location",
          "type": "string"
        },
        {
          "internalType": "string",
          "name": "_status",
          "type": "string"
        },
        {
          "internalType": "string",
          "name": "_notes",
          "type": "string"
        }
      ],
      "name": "recordDistribution",
      "outputs": [],
      "stateMutability": "nonpayable",
      "type": "function"
    },
    {
      "inputs": [
        {
          "internalType": "string",
          "name": "_drugId",
          "type": "string"
        },
        {
          "internalType": "address[]",
          "name": "_toAddresses",
          "type": "address[]"
        },
        {
          "internalType": "string[]",
          "name": "_locations",
          "type": "string[]"
        },
        {
          "internalType": "string[]",
          "name": "_statuses",
          "type": "string[]"
        },
        {
          "internalType": "string[]",
          "name": "_notes",
          "type": "string[]"
        }
      ],
      "name": "recordDistributionBatch",
      "outputs": [],
      "stateMutability": "nonpayable",
      "type": "function"
    },
    {
      "inputs": [
        {
          "internalType": "string",
          "name": "_drugId",
          "type": "string"
        }
      ],
      "name": "getDrugBatch",
      "outputs": [
        {
          "internalType": "string",
          "name": "",
          "type": "string"
        },
        {
          "internalType": "string",
          "name": "",
          "type": "string"
        },
        {
          "internalType": "string",
          "name": "",
          "type": "string"
        },
        {
          "internalType": "string",
          "name": "",
          "type": "string"
        },
        {
          "internalType": "string",
          "name": "",
          "type": "string"
        },
        {
          "internalType": "uint256",
          "name": "",
          "type": "uint256"
        },
        {
          "internalType": "uint256",
          "name": "",
          "type": "uint256"
        },
        {
          "internalType": "string",
          "name": "",
          "type": "string"
        },
        {
          "internalType": "string",
          "name": "",
          "type": "string"
        },
        {
          "internalType": "address",
          "name": "",
          "type": "address"
        },
        {
          "internalType": "uint256",
          "name": "",
          "type": "uint256"
        },
        {
          "internalType": "bool",
          "name": "",
          "type": "bool"
        },
        {
          "internalType": "bool",
          "name": "",
          "type": "bool"
        },
        {
          "internalType": "string",
          "name": "",
          "type": "string"
        },
        {
          "internalType": "uint256",
          "name": "",
          "type": "uint256"
        }
      ],
      "stateMutability": "view",
      "type": "function"
    },
    {
      "inputs": [
        {
          "internalType": "string",
          "name": "_drugId",
          "type": "string"
        }
      ],
      "name": "getDistributionHistory",
      "outputs": [
        {
          "internalType": "address[]",
          "name": "",
          "type": "address[]"
        },
        {
          "internalType": "address[]",
          "name": "",
          "type": "address[]"
        },
        {
          "internalType": "uint256[]",
          "name": "",
          "type": "uint256[]"
        },
        {
          "internalType": "string[]",
          "name": "",
          "type": "string[]"
        },
        {
          "internalType": "string[]",
          "name": "",
          "type": "string[]"
        },
        {
          "internalType": "string[]",
          "name": "",
          "type": "string[]"
        }
      ],
      "stateMutability": "view",
      "type": "function"
    },
    {
      "inputs": [],
      "name": "getTotalDrugBatches",
      "outputs": [
        {
          "internalType": "uint256",
          "name": "",
          "type": "uint256"
        }
      ],
      "stateMutability": "view",
      "type": "function"
    },
    {
      "inputs": [
        {
          "internalType": "string",
          "name": "_drugId",
          "type": "string"
        }
      ],
      "name": "drugBatchExists",
      "outputs": [
        {
          "internalType": "bool",
          "name": "",
          "type": "bool"
        }
      ],
      "stateMutability": "view",
      "type": "function"
    },
    {
      "inputs": [],
      "name": "getAllDrugIds",
      "outputs": [
        {
          "internalType": "string[]",
          "name": "",
          "type": "string[]"
        }
      ],
      "stateMutability": "view",
      "type": "function"
    },
    {
      "inputs": [
        {
          "internalType": "uint256",
          "name": "_offset",
          "type": "uint256"
        },
        {
          "internalType": "uint256",
          "name": "_limit",
          "type": "uint256"
        }
      ],
      "name": "getDrugIdsPaginated",
      "outputs": [
        {
          "internalType": "string[]",
          "name": "drugIds",
          "type": "string[]"
        },
        {
          "internalType": "uint256",
          "name": "total",
          "type": "uint256"
        }
      ],
      "stateMutability": "view",
      "type": "function"
    },
    {
      "inputs": [
        {
          "internalType": "string",
          "name": "_drugId",
          "type": "string"
        }
      ],
      "name": "verifyDrugBatch",
      "outputs": [
        {
          "internalType": "bool",
          "name": "isValid",
          "type": "bool"
        },
        {
          "internalType": "bool",
          "name": "isExpired",
          "type": "bool"
        },
        {
          "internalType": "bool",
          "name": "isRecalled",
          "type": "bool"
        },
        {
          "internalType": "string",
          "name": "status",
          "type": "string"
        }
      ],
      "stateMutability": "view",
      "type": "function"
    },
    {
      "inputs": [],
      "name": "getContractStats",
      "outputs": [
        {
          "internalType": "uint256",
          "name": "totalBatches",
          "type": "uint256"
        },
        {
          "internalType": "uint256",
          "name": "activeBatches",
          "type": "uint256"
        },
        {
          "internalType": "uint256",
          "name": "recalledBatches",
          "type": "uint256"
        },
        {
          "internalType": "uint256",
          "name": "expiredBatches",
          "type": "uint256"
        }
      ],
      "stateMutability": "view",
      "type": "function"
    },
    {
      "inputs": [
        {
          "internalType": "string",
          "name": "_name",
          "type": "string"
        }
      ],
      "name": "searchDrugBatchesByName",
      "outputs": [
        {
          "internalType": "string[]",
          "name": "",
          "type": "string[]"
        }
      ],
      "stateMutability": "view",
      "type": "function"
    },
    {
      "inputs": [
        {
          "internalType": "string",
          "name": "_drugId",
          "type": "string"
        },
        {
          "internalType": "uint256",
          "name": "_offset",
          "type": "uint256"
        },
        {
          "internalType": "uint256",
          "name": "_limit",
          "type": "uint256"
        }
      ],
      "name": "getDistributionHistoryPaginated",
      "outputs": [
        {
          "internalType": "address[]",
          "name": "",
          "type": "address[]"
        },
        {
          "internalType": "address[]",
          "name": "",
          "type": "address[]"
        },
        {
          "internalType": "uint256[]",
          "name": "",
          "type": "uint256[]"
        },
        {
          "internalType": "string[]",
          "name": "",
          "type": "string[]"
        },
        {
          "internalType": "string[]",
          "name": "",
          "type": "string[]"
        },
        {
          "internalType": "string[]",
          "name": "",
          "type": "string[]"
        },
        {
          "internalType": "uint256",
          "name": "totalRecords",
          "type": "uint256"
        }
      ],
      "stateMutability": "view",
      "type": "function"
    },
    {
      "inputs": [
        {
          "internalType": "string",
          "name": "_drugId",
          "type": "string"
        },
        {
          "internalType": "bool",
          "name": "_isValid",
          "type": "bool"
        }
      ],
      "name": "recordVerification",
      "outputs": [],
      "stateMutability": "nonpayable",
      "type": "function"
    },
    {
      "inputs": [
        {
          "internalType": "string",
          "name": "_signatureId",
          "type": "string"
        },
        {
          "internalType": "string",
          "name": "_targetType",
          "type": "string"
        },
        {
          "internalType": "string",
          "name": "_targetId",
          "type": "string"
        },
        {
          "internalType": "string",
          "name": "_dataHash",
          "type": "string"
        },
        {
          "internalType": "string",
          "name": "_signature",
          "type": "string"
        },
        {
          "internalType": "string",
          "name": "_certificateSerialNumber",
          "type": "string"
        }
      ],
      "name": "recordDigitalSignature",
      "outputs": [],
      "stateMutability": "nonpayable",
      "type": "function"
    },
    {
      "inputs": [
        {
          "internalType": "string",
          "name": "_signatureId",
          "type": "string"
        }
      ],
      "name": "getDigitalSignature",
      "outputs": [
        {
          "internalType": "address",
          "name": "signedBy",
          "type": "address"
        },
        {
          "internalType": "uint256",
          "name": "timestamp",
          "type": "uint256"
        },
        {
          "internalType": "string",
          "name": "signatureId",
          "type": "string"
        },
        {
          "internalType": "string",
          "name": "targetType",
          "type": "string"
        },
        {
          "internalType": "string",
          "name": "targetId",
          "type": "string"
        },
        {
          "internalType": "string",
          "name": "dataHash",
          "type": "string"
        },
        {
          "internalType": "string",
          "name": "signature",
          "type": "string"
        },
        {
          "internalType": "string",
          "name": "certificateSerialNumber",
          "type": "string"
        }
      ],
      "stateMutability": "view",
      "type": "function"
    },
    {
      "inputs": [
        {
          "internalType": "string",
          "name": "_targetId",
          "type": "string"
        }
      ],
      "name": "getTargetSignatures",
      "outputs": [
        {
          "internalType": "string[]",
          "name": "",
          "type": "string[]"
        }
      ],
      "stateMutability": "view",
      "type": "function"
    },
    {
      "inputs": [
        {
          "internalType": "string",
          "name": "_signatureId",
          "type": "string"
        }
      ],
      "name": "digitalSignatureExists",
      "outputs": [
        {
          "internalType": "bool",
          "name": "",
          "type": "bool"
        }
      ],
      "stateMutability": "view",
      "type": "function"
    }
  ],
  "bytecode": "0x6080806040523461002857600680546001600160a01b031916331790556133bb908161002e8239f35b600080fdfe6080604052600436101561001257600080fd5b60003560e01c8063102600ce1461213e578063146cdb9c146120eb57806321571ac9146120ab578063250a38cb14611f825780632706cb4114611f645780632f5538af14611cd75780633ad1cb6114611c365780633e549cb814611b685780634028484b14611b3b5780635001a8af146119ba57806354e69f7f1461184557806355051bb01461159857806355d586f7146114d5578063562db4cd1461146f578063617a9b87146114075780638077366d146112425780638203eb8914610e405780638d751aa114610b7b5780638da5cb5b14610b525780638f36e6ef14610abb5780639474e53114610824578063a424954f14610763578063ab6ed2e9146105c9578063bde768fc1461041f578063c7626a21146103b6578063cfdbf2541461039a578063dfe6b5d61461020f5763ffc13a8e1461015057600080fd5b3461020a57604036600319011261020a576001600160401b0360043581811161020a57610181903690600401612724565b6024359182151580930361020a57600160405160208185516101a68183858a01612858565b81016000815203019020015460401c16156101f8576101c490612c74565b6040519182524260208301527f02f2b8642400c967d654059fbfa240bbedc61f80bd5f36f9a3b494eeee06c4c060403393a3005b604051635140917160e11b8152600490fd5b600080fd5b3461020a57600036600319011261020a5760045460009060008060005b83811061024e5750608093604051938452602084015260408301526060820152f35b9061026161025b83612a73565b50613049565b906040519161026f83612663565b805460018060a01b03811684526001600160401b03918260a092831c1660208601526001946101c06103606009888501549460408501968887168852888760401c16606087015260808988821c169087015260ff9060c0908289831c1615159088015286019660c81c16151586526102e9600282016129cd565b60e08601526102fa600382016129cd565b61010086015261030c600482016129cd565b61012086015261031e600582016129cd565b610140860152610330600682016129cd565b610160860152610342600782016129cd565b610180860152610354600882016129cd565b6101a0860152016129cd565b910152511561037757505001906001905b0161022c565b51939491931642111561038e570191600190610371565b94019391600190610371565b3461020a57600036600319011261020a57602060405160328152f35b3461020a57602036600319011261020a576004356001600160401b03811161020a57610415600161040460206103f181953690600401612724565b8160405193828580945193849201612858565b810160028152030190200154612993565b1515604051908152f35b3461020a5760208060031936011261020a576001600160401b039060043582811161020a57610452903690600401612724565b60045461045e81612de0565b9360009284815191012060005b8381106104cf575050505061047f81612de0565b9260005b8281106104a5575050506104a16040519282849384528301906128a0565b0390f35b806104b260019284612cfa565b516104bd8288612cfa565b526104c88187612cfa565b5001610483565b6104db61025b82612a73565b82604051916104e983612663565b80549260018060a01b03841681528660a094851c168a820152600193848301548881166040840152888160401c16606084015260808982821c169084015260ff9060c0928282851c1615159085015260c81c1615159082015261054e600283016129cd565b60e08201526101c061057c6009610567600386016129cd565b94610100850195865261030c600482016129cd565b9101525188815191012014610595575b5060010161046b565b81956105ab6105a5600194612a73565b506129cd565b6105b5828b612cfa565b526105c0818a612cfa565b5001949061058c565b3461020a57604036600319011261020a576001600160401b0360043581811161020a576105fa903690600401612724565b60243582811161020a57610612903690600401612724565b6006549091906001600160a01b03163303610752576040519281519181600160209687818186019761064581838b612858565b81016000815203019020015460401c16156101f85761072961072e9260016106f0887f1711582b0042fe2c8762327b037aaa78dee6a2e68f3158b6ec860652e43dde0d978360405183818a5161069c818388612858565b81016000815203019020018460c81b60ff60c81b198254161790556106df8a600960405185818c516106cf81838a612858565b8101600081520301902001612b36565b604051809381928951928391612858565b60009082019081520301902001805467ffffffffffffffff60801b19164290921660801b67ffffffffffffffff60801b16919091179055565b612c74565b916107446040519160408352604083019061287b565b9342908201528033940390a3005b6040516282b42960e81b8152600490fd5b3461020a57606036600319011261020a576004356001600160401b03811161020a5760e06107fe61081a6107e261080c6107b46107a76107f0973690600401612724565b60443590602435906130dc565b99946107d460409d949593979d999299519d8d8f9e8f90815201906128fc565b8c810360208e0152906128fc565b908a820360408c0152612939565b9088820360608a01526128a0565b9086820360808801526128a0565b9084820360a08601526128a0565b9060c08301520390f35b3461020a5760a08060031936011261020a576001600160401b0360043581811161020a57610856903690600401612724565b6024359282841161020a573660238501121561020a5783600401359061087b8261270d565b9461088960405196876126ec565b82865260209260248488019160051b8301019136831161020a57602401905b828210610a9c5750505060443584811161020a576108ca90369060040161277a565b9460643585811161020a576108e390369060040161277a565b60843586811161020a576108fb90369060040161277a565b6006546001600160a01b0393919291908416330361075257604051875189888a0191610928818585612858565b830160008152838a600195869303019020015460401c16156101f85760ff826040518a818d51610959818389612858565b81016000815203019020015460c81c16610a8a5761098783518c5181149081610a7e575b5090839b91612c94565b6000904216925b61099457005b8351811015610a7c57610a7681610a2e8b8f8f95908f8b610a008f948f93818f97818f918f826109db8e6109f2966109ea946109f99a604051948593849251928391612858565b8201908152030190209c612cfa565b511698612cfa565b5194612cfa565b5193612cfa565b519260405195610a0f8761267f565b3387528601528a6040860152606085015260808401528d830152612d0e565b8b8b610a468b610a3e858b612cfa565b511692612c74565b7f52236c5d2e939cde6cc7af1cec9ba91415370a828dc1ec729db6db0dd6398854604051924284523393a4612cd5565b9061098e565b005b6032915011158d61097d565b604051631c2f681960e21b8152600490fd5b81356001600160a01b038116810361020a5781529084019084016108a8565b3461020a57600036600319011261020a57600454610ad88161270d565b90610ae660405192836126ec565b80825260209081830160046000527f8a35acfbc15ff81a39ae7d344fd709f28e8600b4aa8c65c6b64bfe7fe36bd19b836000925b848410610b3457604051828152806104a18185018a6128a0565b6001918291610b42856129cd565b8152019201920191908490610b1a565b3461020a57600036600319011261020a576006546040516001600160a01b039091168152602090f35b3461020a5760c036600319011261020a576001600160401b0360043581811161020a57610bac903690600401612724565b60243582811161020a57610bc4903690600401612724565b60443583811161020a57610bdc903690600401612724565b9160643584811161020a57610bf5903690600401612724565b9360843581811161020a57610c0e903690600401612724565b60a43582811161020a57610c26903690600401612724565b6006546001600160a01b0392908316330361075257845115610e2e57875115610e1c578760405193610c578561269a565b338552602095868601908042168252604087019089825260608801928b845260808901948d865260a08a0196875260c08a0197885260e08a019889528a808d6040519283828193519283910191610cad92612858565b60029082019081520301902099518a54925167ffffffffffffffff60a01b941660a01b939093166001600160e01b0319909216921667ffffffffffffffff60a01b19169190911717875551610d059060018801612b36565b51610d139060028701612b36565b51610d219060038601612b36565b51610d2f9060048501612b36565b51610d3d9060058401612b36565b51610d4a91600601612b36565b604051818186518181848a0191610d6092612858565b810160038152030190208054600160401b811015610e0657610d8791600182018155612ac0565b919091610df057610de5610dce610dc8610dc8866107297fc7ed7d0ed9f2e8285aa52f0eca46fee4704e65a3e71dfc68c7fcb9a2d3fc221a98606098612b36565b96612c74565b96604051938493338552840152606083019061287b565b4260408301520390a4005b634e487b7160e01b600052600060045260246000fd5b634e487b7160e01b600052604160045260246000fd5b604051634849318160e11b8152600490fd5b6040516342230ef760e11b8152600490fd5b3461020a5761012036600319011261020a576004356001600160401b03811161020a57610e71903690600401612724565b6024356001600160401b03811161020a57610e90903690600401612724565b906044356001600160401b03811161020a57610eb0903690600401612724565b906064356001600160401b03811161020a57610ed0903690600401612724565b6084356001600160401b03811161020a57610eef903690600401612724565b9260e4356001600160401b03811161020a57610f0f903690600401612724565b610104356001600160401b03811161020a57610f2f903690600401612724565b6006549091906001600160a01b0316330361075257845115611230576001600160401b03600160405160208181610f6c8b83815193849201612858565b81016000815203019020015460401c1661121e5760a43560c435111561120c576111c7956111969460405194610fa186612663565b3386526001600160401b0360a4351660208701526001600160401b0360c4351660408701526001600160401b034216606087015260006080870152600160a0870152600060c08701528760e0870152896101008701526101208601526101408501526101608401526101808301526101a0820152604051611021816126b6565b600081526101c082015260096101c060405160208187516110458183858c01612858565b6000908201908152030190208351815460208601516001600160e01b03199091166001600160a01b039092169190911760a091821b67ffffffffffffffff60a01b1617825560408086015160018401805460608901516080808b0151968b015160c0808d015160ff60c81b90151560c81b1660ff60c01b92151590911b919091166001600160d01b03199094166001600160401b03909616959095179190951b67ffffffffffffffff60401b16179490931b67ffffffffffffffff60801b1693909317919091171790559261112160e082015160028601612b36565b61113361010082015160038601612b36565b61114561012082015160048601612b36565b61115761014082015160058601612b36565b61116961016082015160068601612b36565b61117b61018082015160078601612b36565b61118d6101a082015160088601612b36565b01519101612b36565b61119f81612c45565b60045460405160208184516111b78183858901612858565b8101600581520301902055612c74565b7f5475690a8c671a949bdf53ab772647504dfa0cfccf7e005de0af5e916eb1d30b6111fd6040519360408552604085019061287b565b924260208201528033940390a3005b6040516305391a9760e41b8152600490fd5b604051637504311960e11b8152600490fd5b604051630de3fc7f60e11b8152600490fd5b3461020a57602036600319011261020a576004356001600160401b03811161020a57611272903690600401612724565b604051818180935160208193019161128992612858565b8101600081520360200190208054600182015491600281016112aa906129cd565b906112b7600382016129cd565b6112c3600483016129cd565b6112cf600584016129cd565b6112db600685016129cd565b916112e8600786016129cd565b936112f5600887016129cd565b95600901611302906129cd565b96604051998a99600160a01b6001900381168b5260a01c6001600160401b031660208b01526001600160401b03811660408b01528060401c6001600160401b031660608b01528060801c6001600160401b031660808b01528060c01c60ff16151560a08b015260c81c60ff16151560c08a01526101e08060e08b015289016113899161287b565b8881036101008a015261139b9161287b565b8781036101208901526113ad9161287b565b8681036101408801526113bf9161287b565b8581036101608701526113d19161287b565b8481036101808601526113e39161287b565b8381036101a08501526113f59161287b565b8281036101c08401526104a19161287b565b3461020a57602036600319011261020a576004356001600160401b03811161020a5761144261143d6104a1923690600401612724565b612ed3565b9060409492945194859415158552151560208501521515604084015260806060840152608083019061287b565b3461020a57602061149761148236612ae9565b92908160405193828580945193849201612858565b8101600381520301902090815481101561020a576114bb6114c1916104a193612ac0565b90612ad8565b60405191829160208352602083019061287b565b3461020a5760206114e861148236612ae9565b8101600181520301902090815481101561020a5761150591612b1a565b50805460018201546001600160a01b0392918316916104a1919061158a9061157c611532600283016129cd565b6001600160401b03611552600461154b600387016129cd565b95016129cd565b95604051998a998a52811660208a015260a01c16604088015260c0606088015260c087019061287b565b90858203608087015261287b565b9083820360a085015261287b565b3461020a57602036600319011261020a576004356001600160401b03811161020a576115c8903690600401612724565b60405181818093516020819301916115df92612858565b810160008152036020019020604051906115f882612663565b8054600160a01b600190038116835260a01c6001600160401b0316602083015260018101546001600160401b03811660408401528060401c6001600160401b031660608401528060801c6001600160401b031660808401528060c01c60ff16151560a084015260c81c60ff16151560c083015260028101611678906129cd565b60e0830152611689600382016129cd565b61010083015261169b600482016129cd565b6101208301526116ad600582016129cd565b6101408301526116bf600682016129cd565b6101608301526116d1600782016129cd565b6101808301526116e3600882016129cd565b6101a08301526009016116f5906129cd565b806101c083015260e0820151916101008101519161012082015191610140810151906101608101519160208201516001600160401b03169260408301516001600160401b0316936101808401516101a085015191600160a01b600190038651169660608701516001600160401b03169460a088015115159660c0890151151598608001516001600160401b03169b6040519e8f9e8f916101e0808452830161179c9161287b565b82810360208401526117ad9161287b565b9080820390604001526117bf9161287b565b8d810360608f01526117d09161287b565b8c810360808e01526117e19161287b565b9160a08c015260c08b015289810360e08b01526117fd9161287b565b8881036101008a015261180f9161287b565b936101208801526101408701526101608601526101808501528381036101a085015261183a9161287b565b906101c08301520390f35b3461020a57602036600319011261020a576001600160401b0360043581811161020a5760206103f161187b923690600401612724565b8101600281520301902090604051916118938361269a565b80549160018060a01b0393848416815281602082019460a01c1684526118bb600184016129cd565b91604082019283526118cf600285016129cd565b90606083019182526118e3600386016129cd565b94608084019586526118f7600482016129cd565b9160a0850192835261191e6006611910600585016129cd565b9360c08801948552016129cd565b958660e0870152519283511561020a576119826104a19861197461199e966119909560209e6119ac9b51169d51169851925194519651986040519e8f9e8f908152015260408d61010091829101528d019061287b565b908b820360608d015261287b565b9089820360808b015261287b565b9087820360a089015261287b565b9085820360c087015261287b565b9083820360e085015261287b565b3461020a5760a036600319011261020a576001600160401b0360043581811161020a576119eb903690600401612724565b6001600160a01b036024358181169391929084900361020a5760443582811161020a57611a1c903690600401612724565b9260643583811161020a57611a35903690600401612724565b9260843581811161020a57611a4e903690600401612724565b9160065416330361075257604051948351928260016020988981818a0198611a7781838c612858565b81016000815203019020015460401c16156101f85760ff600160405189818951611aa281838c612858565b81016000815203019020015460c81c16610a8a57611b0e95611ad38861072996604051809381928b51928391612858565b810160018152030190209260405194611aeb8661267f565b3386528a8a870152421660408601526060850152608084015260a0830152612d0e565b7f52236c5d2e939cde6cc7af1cec9ba91415370a828dc1ec729db6db0dd6398854604051924284523393a4005b3461020a57602036600319011261020a5760043560045481101561020a576114c16114bb6104a192612a73565b3461020a57602036600319011261020a576004356001600160401b0380821161020a576104a1611ba260206103f181953690600401612724565b810160028152030190206119ac81549161199e611bc1600183016129cd565b611990611bd0600285016129cd565b611982611bdf600387016129cd565b91611974611bef600489016129cd565b95611c086006611c0160058c016129cd565b9a016129cd565b9a6040519e8f9e8f9260018060a01b038116845260a01c1691015260408d61010091829101528d019061287b565b3461020a5760208060031936011261020a576004356001600160401b03811161020a57816103f1611c6b923690600401612724565b81016003815203019020908154611c818161270d565b92611c8f60405194856126ec565b8184526000908152828120838086015b848410611cb957604051828152806104a18185018a6128a0565b6001918291611cc7856129cd565b8152019201920191908490611c9f565b3461020a5760208060031936011261020a576001600160401b0360043581811161020a57611d09903690600401612724565b82611d1d6040519283815193849201612858565b810190838160019384815203019020908154611d388161270d565b92611d4660405194856126ec565b8184526000908152858120838786015b88858510611eed57888884815190611d6d82612dae565b94611d7783612dae565b611d8084612dae565b92611d8a85612de0565b94611d9481612de0565b96611d9e82612de0565b9860005b838110611e1d5750508960c06104a18b611e0f8c611e018d611df38e611de58f8f611dd86040519d8d8f9e8f90815201906128fc565b918c8303908d01526128fc565b9089820360408b0152612939565b9087820360608901526128a0565b9085820360808701526128a0565b9083820360a08501526128a0565b84906001600160a01b038d611e408383611e37828a612cfa565b51511692612cfa565b5288611e4c8387612cfa565b51015116611e5a8289612cfa565b52826040611e688387612cfa565b51015116611e76828b612cfa565b526060611e838286612cfa565b510151611e90828c612cfa565b52611e9b818b612cfa565b506080611ea88286612cfa565b510151611eb5828d612cfa565b52611ec0818c612cfa565b508b611edb8260a0611ed28289612cfa565b51015192612cfa565b52611ee6818d612cfa565b5001611da2565b600591604051611efc8161267f565b85546001600160a01b039081168252858701549081168483015260a090811c8c166040830152611f2e600288016129cd565b6060830152611f3f600388016129cd565b6080830152611f50600488016129cd565b908201528152019201920191908490611d56565b3461020a57600036600319011261020a576020600454604051908152f35b3461020a57608036600319011261020a576001600160401b0360043581811161020a57611fb3903690600401612724565b60243582811161020a57611fcb903690600401612724565b9060443583811161020a57611fe4903690600401612724565b60643584811161020a57611ffc903690600401612724565b6006546001600160a01b031633036107525760405194835190600160209788818189019561202b818389612858565b81016000815203019020015460401c16156101f8576106cf866007926106df6107299661206a61207e9a60038b876040518092516106cf81838c612858565b600460405185818c516106cf81838a612858565b7f799c5318713a83d71e689ac76029b3f6815fd4a6fff91beb62e6b731444e72e5604051924284523393a3005b3461020a57604036600319011261020a576120e16120cd602435600435612e44565b6040519283926040845260408401906128a0565b9060208301520390f35b3461020a57602036600319011261020a576004356001600160401b0380821161020a57600161212460206103f181953690600401612724565b81016000815203019020015460401c161515604051908152f35b3461020a5761012036600319011261020a576004356001600160401b03811161020a5761216f90369060040161277a565b6024356001600160401b03811161020a5761218e90369060040161277a565b6044356001600160401b03811161020a576121ad90369060040161277a565b906064356001600160401b03811161020a576121cd90369060040161277a565b926084356001600160401b03811161020a576121ed90369060040161277a565b60a4356001600160401b03811161020a5761220c9036906004016127fa565b60c4356001600160401b03811161020a5761222b9036906004016127fa565b9060e4356001600160401b03811161020a5761224b90369060040161277a565b92610104356001600160401b03811161020a5761226c90369060040161277a565b6006549098906001600160a01b031633036107525761229d8651885181149081612658575b8161264c575b50612c94565b60005b8651811015610a7c57808a868686868e8e8e6122bd8f9a82612cfa565b51511561263a576001600160401b0360016122e16122db8c85612cfa565b5161296d565b015460401c1661263a576122f58988612cfa565b516123008a88612cfa565b51101561263a579688998998978998978998978998978998978998976123278a809a612cfa565b519861233291612cfa565b519861233d91612cfa565b519861234891612cfa565b519861235391612cfa565b519861235e91612cfa565b516001600160401b03169a61237291612cfa565b516001600160401b03169861238691612cfa565b519661239191612cfa565b5196604051986123a08a612663565b338a5260208a01526040890152426001600160401b03166060890152608088016000905260a088016001905260c088016000905260e08801526101008701526101208601526101408501526101608401526101808301526101a0820152604051612409816126b6565b600081526101c082015261241d8289612cfa565b516124279061296d565b81518154602084015167ffffffffffffffff60a01b60a09190911b166001600160a01b039092166001600160e01b031990911617178155604082810151600183018054606086015160808088015167ffffffffffffffff60801b911b16941b67ffffffffffffffff60401b166001600160401b039093166001600160c01b0319909116179190911791909117815560a0830151815460c08086015161ffff60c01b19909216921515901b60ff60c01b169190911790151560c81b60ff60c81b1617905560e08201516124fc9060028301612b36565b61010082015161250f9060038301612b36565b6101208201516125229060048301612b36565b6101408201516005929061253890838501612b36565b61016081015161254b9060068401612b36565b61018081015161255e9060078401612b36565b6101a08101516125719060088401612b36565b6101c0015161258291600901612b36565b61258c8289612cfa565b5161259690612c45565b600454906125a4838a612cfa565b516040519181838093516020819301916125bd92612858565b8201908152036020019020556125d38188612cfa565b516125de828a612cfa565b51906125e990612c74565b6040519160408352604083016125fe9161287b565b91426020820152803393037f5475690a8c671a949bdf53ab772647504dfa0cfccf7e005de0af5e916eb1d30b91a361263590612cd5565b6122a0565b50505050505050506126359150612cd5565b6032915011158b612297565b8a5181149150612291565b6101e081019081106001600160401b03821117610e0657604052565b60c081019081106001600160401b03821117610e0657604052565b61010081019081106001600160401b03821117610e0657604052565b602081019081106001600160401b03821117610e0657604052565b604081019081106001600160401b03821117610e0657604052565b90601f801991011681019081106001600160401b03821117610e0657604052565b6001600160401b038111610e065760051b60200190565b81601f8201121561020a578035906001600160401b038211610e065760405192612758601f8401601f1916602001856126ec565b8284526020838301011161020a57816000926020809301838601378301015290565b9080601f8301121561020a578135906127928261270d565b926127a060405194856126ec565b828452602092838086019160051b8301019280841161020a57848301915b8483106127ce5750505050505090565b82356001600160401b03811161020a5786916127ef84848094890101612724565b8152019201916127be565b81601f8201121561020a578035916128118361270d565b9261281f60405194856126ec565b808452602092838086019260051b82010192831161020a578301905b828210612849575050505090565b8135815290830190830161283b565b60005b83811061286b5750506000910152565b818101518382015260200161285b565b9060209161289481518092818552858086019101612858565b601f01601f1916010190565b908082519081815260208091019281808460051b8301019501936000915b8483106128ce5750505050505090565b90919293949584806128ec600193601f198682030187528a5161287b565b98019301930191949392906128be565b90815180825260208080930193019160005b82811061291c575050505090565b83516001600160a01b03168552938101939281019260010161290e565b90815180825260208080930193019160005b828110612959575050505090565b83518552938101939281019260010161294b565b6020612986918160405193828580945193849201612858565b8101600081520301902090565b90600182811c921680156129c3575b60208310146129ad57565b634e487b7160e01b600052602260045260246000fd5b91607f16916129a2565b90604051918260008254926129e184612993565b908184526001948581169081600014612a505750600114612a0d575b5050612a0b925003836126ec565b565b9093915060005260209081600020936000915b818310612a38575050612a0b935082010138806129fd565b85548884018501529485019487945091830191612a20565b915050612a0b94506020925060ff191682840152151560051b82010138806129fd565b600454811015612aaa5760046000527f8a35acfbc15ff81a39ae7d344fd709f28e8600b4aa8c65c6b64bfe7fe36bd19b0190600090565b634e487b7160e01b600052603260045260246000fd5b8054821015612aaa5760005260206000200190600090565b90610df057612ae6906129cd565b90565b604060031982011261020a57600435906001600160401b03821161020a57612b1391600401612724565b9060243590565b8054821015612aaa576000526005602060002091020190600090565b91909182516001600160401b038111610e0657612b538254612993565b601f8111612bfd575b50602080601f8311600114612b99575081929394600092612b8e575b50508160011b916000199060031b1c1916179055565b015190503880612b78565b90601f198316958460005282600020926000905b888210612be557505083600195969710612bcc575b505050811b019055565b015160001960f88460031b161c19169055388080612bc2565b80600185968294968601518155019501930190612bad565b600083815260208120601f840160051c81019260208510612c3b575b601f0160051c01915b828110612c30575050612b5c565b818155600101612c22565b9092508290612c19565b600454600160401b811015610e0657806001612c649201600455612a73565b919091610df057612a0b91612b36565b612c8c90602060405192828480945193849201612858565b810103902090565b15612c9b57565b60405162461bcd60e51b8152602060048201526012602482015271496e76616c69642062617463682073697a6560701b6044820152606490fd5b6000198114612ce45760010190565b634e487b7160e01b600052601160045260246000fd5b8051821015612aaa5760209160051b010190565b8054600160401b811015610e0657612d2b91600182018155612b1a565b610df057815181546001600160a01b0319166001600160a01b03918216178255602083015160018301805460408601516001600160e01b0319909116929093169190911760a092831b67ffffffffffffffff60a01b16179055612a0b9260049190612d9d606082015160028601612b36565b61118d608082015160038601612b36565b90612db88261270d565b612dc560405191826126ec565b8281528092612dd6601f199161270d565b0190602036910137565b90612dea8261270d565b612df760405191826126ec565b8281528092612e08601f199161270d565b019060005b828110612e1957505050565b806060602080938501015201612e0d565b91908201809211612ce457565b91908203918211612ce457565b600454929183821015612ebd57612e5b9082612e2a565b81848211612eb5575b612e6d91612e37565b612e7681612de0565b9160005b828110612e88575050509190565b80612e996105a56001938501612a73565b612ea38287612cfa565b52612eae8186612cfa565b5001612e7a565b849150612e64565b5050604051612ecb816126b6565b600081529190565b60409081518181809351612eed8160209687809601612858565b81016000815203019020928251612f0381612663565b84549060018060a01b03821681526001600160401b03809260a01c1684820152816001870154968683019282891684526101c0612f7b60096060840194868d8d1c168652868d60801c16608086015260ff8d60c01c16151560a086015260ff60c086019d60c81c1615158d526102e9600282016129cd565b91015251161561301957511642119351159182159384600014612fcd5767149958d85b1b195960c21b905191612fb0836126d1565b60088352820152915b80612fc5575b93929190565b508315612fbf565b8515612ff75766115e1c1a5c995960ca1b905191612fea836126d1565b6007835282015291612fb9565b6415985b1a5960da1b90519161300c836126d1565b6005835282015291612fb9565b505092509060009260009268139bdd08119bdd5b9960ba1b600093519161303f836126d1565b6009835282015290565b60405190816000825461305b81612993565b936001918083169081156130c05750600114613083575b505060209250600081520301902090565b90915060005260209081600020906000915b8583106130ac575050505060209181013880613072565b805487840152869450918301918101613095565b92505050602093915060ff191682528015150281013880613072565b9092919260409283519483516130f781886020809801612858565b860195848160019889815203019020918254966131138861270d565b976131208851998a6126ec565b80895286890160009586528786208387925b8a85851061330457505050505050875192838610156132c2576131559086612e2a565b858482116132ba575b61316a91979697612e37565b9061317482612dae565b9161317e81612dae565b9961318882612dae565b998a9861319484612de0565b9a8d8c6131a087612de0565b9c8d9c8a6131ad8a612de0565b9e8f92945b8b86106131cf575050505050505050505050505096959493929190565b8580958b8f998c8f918590818f01998a9383600160a01b6001900392836131f6888a612cfa565b5151169161320391612cfa565b5261320e8587612cfa565b510151169161321c91612cfa565b5261322691612cfa565b5101516001600160401b03169161323c91612cfa565b5284613248848d612cfa565b51606001516132578284612cfa565b5261326191612cfa565b508361326d838c612cfa565b516080015161327c8284612cfa565b5261328691612cfa565b506132919089612cfa565b5160a00151916132a091612cfa565b526132ab818d612cfa565b50018e908e8c8f8f8c916131b2565b84915061315e565b5050925092509280945051936132d7856126b6565b8385528051906132e6826126b6565b84825251936132f4856126b6565b8085523681378493928192829190565b6005918d8051906133148261267f565b86546001600160a01b039081168352868801549081168584015260a090811c6001600160401b03169183019190915261334f600288016129cd565b6060830152613360600388016129cd565b6080830152613371600488016129cd565b90820152815201920192019190849061313256fea264697066735822122093afc6287491bf2dbf3d25f68067eea9b355576fc8d9ae9a185d915c911220c864736f6c63430008130033",
  "immutableReferences": {},
  "source": "// SPDX-License-Identifier: MIT\r\npragma solidity ^0.8.19;\r\n\r\n// Custom errors  tit kim gas (r hn require vi string)\r\nerror DrugIdEmpty();\r\nerror DrugIdExists();\r\nerror InvalidExpiryDate();\r\nerror DrugNotFound();\r\nerror DrugRecalled();\r\nerror Unauthorized();\r\nerror SignatureIdEmpty();\r\nerror DataHashEmpty();\r\n\r\ncontract DrugTraceability {\r\n    // Packed struct  tit kim storage slots\r\n    struct DrugBatch {\r\n        address createdBy;           // 20 bytes\r\n        uint64 productionDate;       // 8 bytes\r\n        uint64 expiryDate;           // 8 bytes\r\n        uint64 createdAt;            // 8 bytes\r\n        uint64 recallDate;           // 8 bytes\r\n        bool isActive;               // 1 byte\r\n        bool isRecalled;             // 1 byte\r\n        // Total: 54 bytes, fits in 2 slots (64 bytes)\r\n        string drugId;               // Slot 3\r\n        string name;                 // Slot 4+\r\n        string activeIngredient;     // Slot 5+\r\n        string manufacturerId;       // Slot 6+\r\n        string batchNumber;          // Slot 7+\r\n        string qualityTestResult;    // Slot 8+\r\n        string qrCodeData;           // Slot 9+\r\n        string recallReason;         // Slot 10+\r\n    }\r\n    \r\n    // Packed struct cho lch s phn phi\r\n    struct DistributionRecord {\r\n        address from;                // 20 bytes\r\n        address to;                  // 20 bytes\r\n        uint64 timestamp;            // 8 bytes\r\n        // Total: 48 bytes, fits in 1 slot\r\n        string location;             // Slot 2+\r\n        string status;               // Slot 3+\r\n        string notes;                // Slot 4+\r\n    }\r\n    \r\n    // Struct cho ch k s\r\n    struct DigitalSignature {\r\n        address signedBy;            // 20 bytes\r\n        uint64 timestamp;            // 8 bytes\r\n        // Total: 28 bytes\r\n        string signatureId;          // Slot 2+\r\n        string targetType;           // Slot 3+\r\n        string targetId;             // Slot 4+\r\n        string dataHash;             // Slot 5+ (SHA-256 hash)\r\n        string signature;            // Slot 6+ (ch k s)\r\n        string certificateSerialNumber; // Slot 7+\r\n    }\r\n    \r\n    // Mapping lu tr thng tin l thuc\r\n    mapping(string => DrugBatch) public drugBatches;\r\n    \r\n    // Mapping lu tr lch s phn phi\r\n    mapping(string => DistributionRecord[]) public distributionHistory;\r\n    \r\n    // Mapping lu tr ch k s\r\n    // Key: signatureId (unique identifier cho ch k)\r\n    mapping(string => DigitalSignature) public digitalSignatures;\r\n    \r\n    // Mapping  lu danh sch signature IDs theo target (drugId, supplyChainId, etc.)\r\n    mapping(string => string[]) public targetSignatures;\r\n    \r\n    // Array lu tr tt c drug IDs (ti u ha bng cch s dng mapping)\r\n    string[] public allDrugIds;\r\n    mapping(string => uint256) private drugIdIndex; // Index ca drugId trong array\r\n    \r\n    // Owner ca contract\r\n    address public owner;\r\n    \r\n    // Batch size limit  trnh gas limit\r\n    uint256 public constant MAX_BATCH_SIZE = 50;\r\n    \r\n    // Events vi indexed parameters  tit kim gas\r\n    event DrugBatchCreated(\r\n        string indexed drugId,\r\n        string name,\r\n        address indexed createdBy,\r\n        uint256 timestamp\r\n    );\r\n    \r\n    event DrugBatchUpdated(\r\n        string indexed drugId,\r\n        address indexed updatedBy,\r\n        uint256 timestamp\r\n    );\r\n    \r\n    event DrugBatchRecalled(\r\n        string indexed drugId,\r\n        string reason,\r\n        address indexed recalledBy,\r\n        uint256 timestamp\r\n    );\r\n    \r\n    event DistributionRecorded(\r\n        string indexed drugId,\r\n        address indexed from,\r\n        address indexed to,\r\n        uint256 timestamp\r\n    );\r\n    \r\n    event DrugBatchVerified(\r\n        string indexed drugId,\r\n        address indexed verifier,\r\n        bool isValid,\r\n        uint256 timestamp\r\n    );\r\n    \r\n    event DigitalSignatureRecorded(\r\n        string indexed signatureId,\r\n        string indexed targetType,\r\n        string indexed targetId,\r\n        address signedBy,\r\n        string dataHash,\r\n        uint256 timestamp\r\n    );\r\n    \r\n    // Modifier ch cho php owner\r\n    modifier onlyOwner() {\r\n        if (msg.sender != owner) revert Unauthorized();\r\n        _;\r\n    }\r\n    \r\n    // Constructor\r\n    constructor() {\r\n        owner = msg.sender;\r\n    }\r\n    \r\n    // To l thuc mi (ti u ha)\r\n    function createDrugBatch(\r\n        string memory _drugId,\r\n        string memory _name,\r\n        string memory _activeIngredient,\r\n        string memory _manufacturerId,\r\n        string memory _batchNumber,\r\n        uint256 _productionDate,\r\n        uint256 _expiryDate,\r\n        string memory _qualityTestResult,\r\n        string memory _qrCodeData\r\n    ) external onlyOwner {\r\n        if (bytes(_drugId).length == 0) revert DrugIdEmpty();\r\n        if (drugBatches[_drugId].createdAt > 0) revert DrugIdExists();\r\n        if (_expiryDate <= _productionDate) revert InvalidExpiryDate();\r\n        \r\n        drugBatches[_drugId] = DrugBatch({\r\n            drugId: _drugId,\r\n            name: _name,\r\n            activeIngredient: _activeIngredient,\r\n            manufacturerId: _manufacturerId,\r\n            batchNumber: _batchNumber,\r\n            productionDate: uint64(_productionDate),\r\n            expiryDate: uint64(_expiryDate),\r\n            qualityTestResult: _qualityTestResult,\r\n            qrCodeData: _qrCodeData,\r\n            createdBy: msg.sender,\r\n            createdAt: uint64(block.timestamp),\r\n            isActive: true,\r\n            isRecalled: false,\r\n            recallReason: \"\",\r\n            recallDate: 0\r\n        });\r\n        \r\n        allDrugIds.push(_drugId);\r\n        drugIdIndex[_drugId] = allDrugIds.length; // Index + 1 (0 = khng tn ti)\r\n        \r\n        emit DrugBatchCreated(_drugId, _name, msg.sender, block.timestamp);\r\n    }\r\n    \r\n    // Batch create  tit kim gas khi to nhiu l thuc\r\n    function createDrugBatchBatch(\r\n        string[] memory _drugIds,\r\n        string[] memory _names,\r\n        string[] memory _activeIngredients,\r\n        string[] memory _manufacturerIds,\r\n        string[] memory _batchNumbers,\r\n        uint256[] memory _productionDates,\r\n        uint256[] memory _expiryDates,\r\n        string[] memory _qualityTestResults,\r\n        string[] memory _qrCodeData\r\n    ) external onlyOwner {\r\n        require(_drugIds.length == _names.length && \r\n                _drugIds.length == _activeIngredients.length &&\r\n                _drugIds.length <= MAX_BATCH_SIZE, \"Invalid batch size\");\r\n        \r\n        for (uint256 i = 0; i < _drugIds.length; i++) {\r\n            if (bytes(_drugIds[i]).length == 0) continue;\r\n            if (drugBatches[_drugIds[i]].createdAt > 0) continue;\r\n            if (_expiryDates[i] <= _productionDates[i]) continue;\r\n            \r\n            drugBatches[_drugIds[i]] = DrugBatch({\r\n                drugId: _drugIds[i],\r\n                name: _names[i],\r\n                activeIngredient: _activeIngredients[i],\r\n                manufacturerId: _manufacturerIds[i],\r\n                batchNumber: _batchNumbers[i],\r\n                productionDate: uint64(_productionDates[i]),\r\n                expiryDate: uint64(_expiryDates[i]),\r\n                qualityTestResult: _qualityTestResults[i],\r\n                qrCodeData: _qrCodeData[i],\r\n                createdBy: msg.sender,\r\n                createdAt: uint64(block.timestamp),\r\n                isActive: true,\r\n                isRecalled: false,\r\n                recallReason: \"\",\r\n                recallDate: 0\r\n            });\r\n            \r\n            allDrugIds.push(_drugIds[i]);\r\n            drugIdIndex[_drugIds[i]] = allDrugIds.length;\r\n            \r\n            emit DrugBatchCreated(_drugIds[i], _names[i], msg.sender, block.timestamp);\r\n        }\r\n    }\r\n    \r\n    // Cp nht thng tin l thuc (ti u ha)\r\n    function updateDrugBatch(\r\n        string memory _drugId,\r\n        string memory _name,\r\n        string memory _activeIngredient,\r\n        string memory _qualityTestResult\r\n    ) external onlyOwner {\r\n        if (drugBatches[_drugId].createdAt == 0) revert DrugNotFound();\r\n        \r\n        drugBatches[_drugId].name = _name;\r\n        drugBatches[_drugId].activeIngredient = _activeIngredient;\r\n        drugBatches[_drugId].qualityTestResult = _qualityTestResult;\r\n        \r\n        emit DrugBatchUpdated(_drugId, msg.sender, block.timestamp);\r\n    }\r\n    \r\n    // Thu hi l thuc (ti u ha)\r\n    function recallDrugBatch(\r\n        string memory _drugId,\r\n        string memory _reason\r\n    ) external onlyOwner {\r\n        if (drugBatches[_drugId].createdAt == 0) revert DrugNotFound();\r\n        \r\n        drugBatches[_drugId].isRecalled = true;\r\n        drugBatches[_drugId].recallReason = _reason;\r\n        drugBatches[_drugId].recallDate = uint64(block.timestamp);\r\n        \r\n        emit DrugBatchRecalled(_drugId, _reason, msg.sender, block.timestamp);\r\n    }\r\n    \r\n    // Ghi nhn phn phi (ti u ha)\r\n    function recordDistribution(\r\n        string memory _drugId,\r\n        address _to,\r\n        string memory _location,\r\n        string memory _status,\r\n        string memory _notes\r\n    ) external onlyOwner {\r\n        if (drugBatches[_drugId].createdAt == 0) revert DrugNotFound();\r\n        if (drugBatches[_drugId].isRecalled) revert DrugRecalled();\r\n        \r\n        distributionHistory[_drugId].push(DistributionRecord({\r\n            from: msg.sender,\r\n            to: _to,\r\n            timestamp: uint64(block.timestamp),\r\n            location: _location,\r\n            status: _status,\r\n            notes: _notes\r\n        }));\r\n        \r\n        emit DistributionRecorded(_drugId, msg.sender, _to, block.timestamp);\r\n    }\r\n    \r\n    // Batch record distribution  tit kim gas\r\n    function recordDistributionBatch(\r\n        string memory _drugId,\r\n        address[] memory _toAddresses,\r\n        string[] memory _locations,\r\n        string[] memory _statuses,\r\n        string[] memory _notes\r\n    ) external onlyOwner {\r\n        if (drugBatches[_drugId].createdAt == 0) revert DrugNotFound();\r\n        if (drugBatches[_drugId].isRecalled) revert DrugRecalled();\r\n        require(_toAddresses.length == _locations.length && \r\n                _toAddresses.length <= MAX_BATCH_SIZE, \"Invalid batch size\");\r\n        \r\n        for (uint256 i = 0; i < _toAddresses.length; i++) {\r\n            distributionHistory[_drugId].push(DistributionRecord({\r\n                from: msg.sender,\r\n                to: _toAddresses[i],\r\n                timestamp: uint64(block.timestamp),\r\n                location: _locations[i],\r\n                status: _statuses[i],\r\n                notes: _notes[i]\r\n            }));\r\n            \r\n            emit DistributionRecorded(_drugId, msg.sender, _toAddresses[i], block.timestamp);\r\n        }\r\n    }\r\n    \r\n    // Ly thng tin l thuc (ti u ha return)\r\n    function getDrugBatch(string memory _drugId) external view returns (\r\n        string memory,\r\n        string memory,\r\n        string memory,\r\n        string memory,\r\n        string memory,\r\n        uint256,\r\n        uint256,\r\n        string memory,\r\n        string memory,\r\n        address,\r\n        uint256,\r\n        bool,\r\n        bool,\r\n        string memory,\r\n        uint256\r\n    ) {\r\n        DrugBatch memory batch = drugBatches[_drugId];\r\n        return (\r\n            batch.drugId,\r\n            batch.name,\r\n            batch.activeIngredient,\r\n            batch.manufacturerId,\r\n            batch.batchNumber,\r\n            uint256(batch.productionDate),\r\n            uint256(batch.expiryDate),\r\n            batch.qualityTestResult,\r\n            batch.qrCodeData,\r\n            batch.createdBy,\r\n            uint256(batch.createdAt),\r\n            batch.isActive,\r\n            batch.isRecalled,\r\n            batch.recallReason,\r\n            uint256(batch.recallDate)\r\n        );\r\n    }\r\n    \r\n    // Ly lch s phn phi (ti u ha)\r\n    function getDistributionHistory(string memory _drugId) external view returns (\r\n        address[] memory,\r\n        address[] memory,\r\n        uint256[] memory,\r\n        string[] memory,\r\n        string[] memory,\r\n        string[] memory\r\n    ) {\r\n        DistributionRecord[] memory records = distributionHistory[_drugId];\r\n        uint256 length = records.length;\r\n        \r\n        address[] memory froms = new address[](length);\r\n        address[] memory tos = new address[](length);\r\n        uint256[] memory timestamps = new uint256[](length);\r\n        string[] memory locations = new string[](length);\r\n        string[] memory statuses = new string[](length);\r\n        string[] memory notes = new string[](length);\r\n        \r\n        // Unchecked loop  tit kim gas ( kim tra length)\r\n        unchecked {\r\n            for (uint256 i = 0; i < length; i++) {\r\n                froms[i] = records[i].from;\r\n                tos[i] = records[i].to;\r\n                timestamps[i] = uint256(records[i].timestamp);\r\n                locations[i] = records[i].location;\r\n                statuses[i] = records[i].status;\r\n                notes[i] = records[i].notes;\r\n            }\r\n        }\r\n        \r\n        return (froms, tos, timestamps, locations, statuses, notes);\r\n    }\r\n    \r\n    // Ly tng s l thuc\r\n    function getTotalDrugBatches() external view returns (uint256) {\r\n        return allDrugIds.length;\r\n    }\r\n    \r\n    // Kim tra l thuc c tn ti khng (ti u ha)\r\n    function drugBatchExists(string memory _drugId) external view returns (bool) {\r\n        return drugBatches[_drugId].createdAt > 0;\r\n    }\r\n    \r\n    // Ly tt c drug IDs (ti u ha vi pagination)\r\n    function getAllDrugIds() external view returns (string[] memory) {\r\n        return allDrugIds;\r\n    }\r\n    \r\n    // Ly drug IDs vi pagination  trnh gas limit\r\n    function getDrugIdsPaginated(uint256 _offset, uint256 _limit) external view returns (\r\n        string[] memory drugIds,\r\n        uint256 total\r\n    ) {\r\n        total = allDrugIds.length;\r\n        if (_offset >= total) {\r\n            return (new string[](0), total);\r\n        }\r\n        \r\n        uint256 end = _offset + _limit;\r\n        if (end > total) {\r\n            end = total;\r\n        }\r\n        \r\n        uint256 length = end - _offset;\r\n        drugIds = new string[](length);\r\n        \r\n        unchecked {\r\n            for (uint256 i = 0; i < length; i++) {\r\n                drugIds[i] = allDrugIds[_offset + i];\r\n            }\r\n        }\r\n        \r\n        return (drugIds, total);\r\n    }\r\n    \r\n    // Kim tra tnh hp l ca l thuc (ti u ha)\r\n    function verifyDrugBatch(string memory _drugId) external view returns (\r\n        bool isValid,\r\n        bool isExpired,\r\n        bool isRecalled,\r\n        string memory status\r\n    ) {\r\n        DrugBatch memory batch = drugBatches[_drugId];\r\n        \r\n        if (batch.createdAt == 0) {\r\n            return (false, false, false, \"Not Found\");\r\n        }\r\n        \r\n        bool expired = block.timestamp > uint256(batch.expiryDate);\r\n        bool recalled = batch.isRecalled;\r\n        \r\n        string memory currentStatus;\r\n        if (recalled) {\r\n            currentStatus = \"Recalled\";\r\n        } else if (expired) {\r\n            currentStatus = \"Expired\";\r\n        } else {\r\n            currentStatus = \"Valid\";\r\n        }\r\n        \r\n        return (!recalled && !expired, expired, recalled, currentStatus);\r\n    }\r\n    \r\n    // Ly thng k tng quan (ti u ha vi unchecked)\r\n    function getContractStats() external view returns (\r\n        uint256 totalBatches,\r\n        uint256 activeBatches,\r\n        uint256 recalledBatches,\r\n        uint256 expiredBatches\r\n    ) {\r\n        totalBatches = allDrugIds.length;\r\n        uint256 active = 0;\r\n        uint256 recalled = 0;\r\n        uint256 expired = 0;\r\n        \r\n        unchecked {\r\n            for (uint256 i = 0; i < allDrugIds.length; i++) {\r\n                DrugBatch memory batch = drugBatches[allDrugIds[i]];\r\n                \r\n                if (batch.isRecalled) {\r\n                    recalled++;\r\n                } else if (block.timestamp > uint256(batch.expiryDate)) {\r\n                    expired++;\r\n                } else {\r\n                    active++;\r\n                }\r\n            }\r\n        }\r\n        \r\n        return (totalBatches, active, recalled, expired);\r\n    }\r\n    \r\n    // Tm kim l thuc theo tn (ti u ha)\r\n    function searchDrugBatchesByName(string memory _name) external view returns (string[] memory) {\r\n        string[] memory results = new string[](allDrugIds.length);\r\n        uint256 count = 0;\r\n        bytes32 nameHash = keccak256(bytes(_name));\r\n        \r\n        unchecked {\r\n            for (uint256 i = 0; i < allDrugIds.length; i++) {\r\n                DrugBatch memory batch = drugBatches[allDrugIds[i]];\r\n                if (keccak256(bytes(batch.name)) == nameHash) {\r\n                    results[count] = allDrugIds[i];\r\n                    count++;\r\n                }\r\n            }\r\n        }\r\n        \r\n        // To array vi kch thc chnh xc\r\n        string[] memory finalResults = new string[](count);\r\n        unchecked {\r\n            for (uint256 i = 0; i < count; i++) {\r\n                finalResults[i] = results[i];\r\n            }\r\n        }\r\n        \r\n        return finalResults;\r\n    }\r\n    \r\n    // Ly lch s phn phi vi pagination (ti u ha)\r\n    function getDistributionHistoryPaginated(\r\n        string memory _drugId,\r\n        uint256 _offset,\r\n        uint256 _limit\r\n    ) external view returns (\r\n        address[] memory,\r\n        address[] memory,\r\n        uint256[] memory,\r\n        string[] memory,\r\n        string[] memory,\r\n        string[] memory,\r\n        uint256 totalRecords\r\n    ) {\r\n        DistributionRecord[] memory records = distributionHistory[_drugId];\r\n        uint256 total = records.length;\r\n        \r\n        if (_offset >= total) {\r\n            address[] memory emptyAddresses = new address[](0);\r\n            string[] memory emptyStrings = new string[](0);\r\n            uint256[] memory emptyUints = new uint256[](0);\r\n            return (emptyAddresses, emptyAddresses, emptyUints, emptyStrings, emptyStrings, emptyStrings, total);\r\n        }\r\n        \r\n        uint256 end = _offset + _limit;\r\n        if (end > total) {\r\n            end = total;\r\n        }\r\n        \r\n        uint256 length = end - _offset;\r\n        \r\n        address[] memory froms = new address[](length);\r\n        address[] memory tos = new address[](length);\r\n        uint256[] memory timestamps = new uint256[](length);\r\n        string[] memory locations = new string[](length);\r\n        string[] memory statuses = new string[](length);\r\n        string[] memory notes = new string[](length);\r\n        \r\n        unchecked {\r\n            for (uint256 i = 0; i < length; i++) {\r\n                uint256 index = _offset + i;\r\n                froms[i] = records[index].from;\r\n                tos[i] = records[index].to;\r\n                timestamps[i] = uint256(records[index].timestamp);\r\n                locations[i] = records[index].location;\r\n                statuses[i] = records[index].status;\r\n                notes[i] = records[index].notes;\r\n            }\r\n        }\r\n        \r\n        return (froms, tos, timestamps, locations, statuses, notes, total);\r\n    }\r\n    \r\n    // Function  ghi nhn vic xc minh\r\n    function recordVerification(string memory _drugId, bool _isValid) external {\r\n        if (drugBatches[_drugId].createdAt == 0) revert DrugNotFound();\r\n        \r\n        emit DrugBatchVerified(_drugId, msg.sender, _isValid, block.timestamp);\r\n    }\r\n    \r\n    // Ghi ch k s ln blockchain\r\n    function recordDigitalSignature(\r\n        string memory _signatureId,\r\n        string memory _targetType,\r\n        string memory _targetId,\r\n        string memory _dataHash,\r\n        string memory _signature,\r\n        string memory _certificateSerialNumber\r\n    ) external onlyOwner {\r\n        if (bytes(_signatureId).length == 0) revert SignatureIdEmpty();\r\n        if (bytes(_dataHash).length == 0) revert DataHashEmpty();\r\n        \r\n        // Lu ch k s\r\n        digitalSignatures[_signatureId] = DigitalSignature({\r\n            signedBy: msg.sender,\r\n            timestamp: uint64(block.timestamp),\r\n            signatureId: _signatureId,\r\n            targetType: _targetType,\r\n            targetId: _targetId,\r\n            dataHash: _dataHash,\r\n            signature: _signature,\r\n            certificateSerialNumber: _certificateSerialNumber\r\n        });\r\n        \r\n        // Thm vo danh sch signatures ca target\r\n        targetSignatures[_targetId].push(_signatureId);\r\n        \r\n        emit DigitalSignatureRecorded(\r\n            _signatureId,\r\n            _targetType,\r\n            _targetId,\r\n            msg.sender,\r\n            _dataHash,\r\n            block.timestamp\r\n        );\r\n    }\r\n    \r\n    // Ly thng tin ch k s\r\n    function getDigitalSignature(string memory _signatureId) external view returns (\r\n        address signedBy,\r\n        uint256 timestamp,\r\n        string memory signatureId,\r\n        string memory targetType,\r\n        string memory targetId,\r\n        string memory dataHash,\r\n        string memory signature,\r\n        string memory certificateSerialNumber\r\n    ) {\r\n        DigitalSignature memory sig = digitalSignatures[_signatureId];\r\n        if (bytes(sig.signatureId).length == 0) revert();\r\n        \r\n        return (\r\n            sig.signedBy,\r\n            uint256(sig.timestamp),\r\n            sig.signatureId,\r\n            sig.targetType,\r\n            sig.targetId,\r\n            sig.dataHash,\r\n            sig.signature,\r\n            sig.certificateSerialNumber\r\n        );\r\n    }\r\n    \r\n    // Ly danh sch signature IDs ca mt target\r\n    function getTargetSignatures(string memory _targetId) external view returns (string[] memory) {\r\n        return targetSignatures[_targetId];\r\n    }\r\n    \r\n    // Kim tra ch k s c tn ti khng\r\n    function digitalSignatureExists(string memory _signatureId) external view returns (bool) {\r\n        return bytes(digitalSignatures[_signatureId].signatureId).length > 0;\r\n    }\r\n}\r\n",
  "sourcePath": "D:\\DACN\\contracts\\DrugTraceability.sol",
  "compiler": {
    "name": "solc",
    "version": "0.8.19+commit.7dd6d404.Emscripten.clang"
  },
  "schemaVersion": "3.4.16",
  "updatedAt": "2025-12-02T19:04:44.562Z",
  "devdoc": {
    "kind": "dev",
    "methods": {},
    "version": 1
  },
  "userdoc": {
    "kind": "user",
    "methods": {},
    "version": 1
  }
}