{
  "contractName": "DrugTraceability",
  "abi": [
    {
      "inputs": [],
      "stateMutability": "nonpayable",
      "type": "constructor"
    },
    {
      "inputs": [],
      "name": "DrugIdEmpty",
      "type": "error"
    },
    {
      "inputs": [],
      "name": "DrugIdExists",
      "type": "error"
    },
    {
      "inputs": [],
      "name": "DrugNotFound",
      "type": "error"
    },
    {
      "inputs": [],
      "name": "DrugRecalled",
      "type": "error"
    },
    {
      "inputs": [],
      "name": "InvalidExpiryDate",
      "type": "error"
    },
    {
      "inputs": [],
      "name": "Unauthorized",
      "type": "error"
    },
    {
      "anonymous": false,
      "inputs": [
        {
          "indexed": true,
          "internalType": "string",
          "name": "drugId",
          "type": "string"
        },
        {
          "indexed": true,
          "internalType": "address",
          "name": "from",
          "type": "address"
        },
        {
          "indexed": true,
          "internalType": "address",
          "name": "to",
          "type": "address"
        },
        {
          "indexed": false,
          "internalType": "uint256",
          "name": "timestamp",
          "type": "uint256"
        }
      ],
      "name": "DistributionRecorded",
      "type": "event"
    },
    {
      "anonymous": false,
      "inputs": [
        {
          "indexed": true,
          "internalType": "string",
          "name": "drugId",
          "type": "string"
        },
        {
          "indexed": false,
          "internalType": "string",
          "name": "name",
          "type": "string"
        },
        {
          "indexed": true,
          "internalType": "address",
          "name": "createdBy",
          "type": "address"
        },
        {
          "indexed": false,
          "internalType": "uint256",
          "name": "timestamp",
          "type": "uint256"
        }
      ],
      "name": "DrugBatchCreated",
      "type": "event"
    },
    {
      "anonymous": false,
      "inputs": [
        {
          "indexed": true,
          "internalType": "string",
          "name": "drugId",
          "type": "string"
        },
        {
          "indexed": false,
          "internalType": "string",
          "name": "reason",
          "type": "string"
        },
        {
          "indexed": true,
          "internalType": "address",
          "name": "recalledBy",
          "type": "address"
        },
        {
          "indexed": false,
          "internalType": "uint256",
          "name": "timestamp",
          "type": "uint256"
        }
      ],
      "name": "DrugBatchRecalled",
      "type": "event"
    },
    {
      "anonymous": false,
      "inputs": [
        {
          "indexed": true,
          "internalType": "string",
          "name": "drugId",
          "type": "string"
        },
        {
          "indexed": true,
          "internalType": "address",
          "name": "updatedBy",
          "type": "address"
        },
        {
          "indexed": false,
          "internalType": "uint256",
          "name": "timestamp",
          "type": "uint256"
        }
      ],
      "name": "DrugBatchUpdated",
      "type": "event"
    },
    {
      "anonymous": false,
      "inputs": [
        {
          "indexed": true,
          "internalType": "string",
          "name": "drugId",
          "type": "string"
        },
        {
          "indexed": true,
          "internalType": "address",
          "name": "verifier",
          "type": "address"
        },
        {
          "indexed": false,
          "internalType": "bool",
          "name": "isValid",
          "type": "bool"
        },
        {
          "indexed": false,
          "internalType": "uint256",
          "name": "timestamp",
          "type": "uint256"
        }
      ],
      "name": "DrugBatchVerified",
      "type": "event"
    },
    {
      "inputs": [],
      "name": "MAX_BATCH_SIZE",
      "outputs": [
        {
          "internalType": "uint256",
          "name": "",
          "type": "uint256"
        }
      ],
      "stateMutability": "view",
      "type": "function"
    },
    {
      "inputs": [
        {
          "internalType": "uint256",
          "name": "",
          "type": "uint256"
        }
      ],
      "name": "allDrugIds",
      "outputs": [
        {
          "internalType": "string",
          "name": "",
          "type": "string"
        }
      ],
      "stateMutability": "view",
      "type": "function"
    },
    {
      "inputs": [
        {
          "internalType": "string",
          "name": "",
          "type": "string"
        },
        {
          "internalType": "uint256",
          "name": "",
          "type": "uint256"
        }
      ],
      "name": "distributionHistory",
      "outputs": [
        {
          "internalType": "address",
          "name": "from",
          "type": "address"
        },
        {
          "internalType": "address",
          "name": "to",
          "type": "address"
        },
        {
          "internalType": "uint64",
          "name": "timestamp",
          "type": "uint64"
        },
        {
          "internalType": "string",
          "name": "location",
          "type": "string"
        },
        {
          "internalType": "string",
          "name": "status",
          "type": "string"
        },
        {
          "internalType": "string",
          "name": "notes",
          "type": "string"
        }
      ],
      "stateMutability": "view",
      "type": "function"
    },
    {
      "inputs": [
        {
          "internalType": "string",
          "name": "",
          "type": "string"
        }
      ],
      "name": "drugBatches",
      "outputs": [
        {
          "internalType": "address",
          "name": "createdBy",
          "type": "address"
        },
        {
          "internalType": "uint64",
          "name": "productionDate",
          "type": "uint64"
        },
        {
          "internalType": "uint64",
          "name": "expiryDate",
          "type": "uint64"
        },
        {
          "internalType": "uint64",
          "name": "createdAt",
          "type": "uint64"
        },
        {
          "internalType": "uint64",
          "name": "recallDate",
          "type": "uint64"
        },
        {
          "internalType": "bool",
          "name": "isActive",
          "type": "bool"
        },
        {
          "internalType": "bool",
          "name": "isRecalled",
          "type": "bool"
        },
        {
          "internalType": "string",
          "name": "drugId",
          "type": "string"
        },
        {
          "internalType": "string",
          "name": "name",
          "type": "string"
        },
        {
          "internalType": "string",
          "name": "activeIngredient",
          "type": "string"
        },
        {
          "internalType": "string",
          "name": "manufacturerId",
          "type": "string"
        },
        {
          "internalType": "string",
          "name": "batchNumber",
          "type": "string"
        },
        {
          "internalType": "string",
          "name": "qualityTestResult",
          "type": "string"
        },
        {
          "internalType": "string",
          "name": "qrCodeData",
          "type": "string"
        },
        {
          "internalType": "string",
          "name": "recallReason",
          "type": "string"
        }
      ],
      "stateMutability": "view",
      "type": "function"
    },
    {
      "inputs": [],
      "name": "owner",
      "outputs": [
        {
          "internalType": "address",
          "name": "",
          "type": "address"
        }
      ],
      "stateMutability": "view",
      "type": "function"
    },
    {
      "inputs": [
        {
          "internalType": "string",
          "name": "_drugId",
          "type": "string"
        },
        {
          "internalType": "string",
          "name": "_name",
          "type": "string"
        },
        {
          "internalType": "string",
          "name": "_activeIngredient",
          "type": "string"
        },
        {
          "internalType": "string",
          "name": "_manufacturerId",
          "type": "string"
        },
        {
          "internalType": "string",
          "name": "_batchNumber",
          "type": "string"
        },
        {
          "internalType": "uint256",
          "name": "_productionDate",
          "type": "uint256"
        },
        {
          "internalType": "uint256",
          "name": "_expiryDate",
          "type": "uint256"
        },
        {
          "internalType": "string",
          "name": "_qualityTestResult",
          "type": "string"
        },
        {
          "internalType": "string",
          "name": "_qrCodeData",
          "type": "string"
        }
      ],
      "name": "createDrugBatch",
      "outputs": [],
      "stateMutability": "nonpayable",
      "type": "function"
    },
    {
      "inputs": [
        {
          "internalType": "string[]",
          "name": "_drugIds",
          "type": "string[]"
        },
        {
          "internalType": "string[]",
          "name": "_names",
          "type": "string[]"
        },
        {
          "internalType": "string[]",
          "name": "_activeIngredients",
          "type": "string[]"
        },
        {
          "internalType": "string[]",
          "name": "_manufacturerIds",
          "type": "string[]"
        },
        {
          "internalType": "string[]",
          "name": "_batchNumbers",
          "type": "string[]"
        },
        {
          "internalType": "uint256[]",
          "name": "_productionDates",
          "type": "uint256[]"
        },
        {
          "internalType": "uint256[]",
          "name": "_expiryDates",
          "type": "uint256[]"
        },
        {
          "internalType": "string[]",
          "name": "_qualityTestResults",
          "type": "string[]"
        },
        {
          "internalType": "string[]",
          "name": "_qrCodeData",
          "type": "string[]"
        }
      ],
      "name": "createDrugBatchBatch",
      "outputs": [],
      "stateMutability": "nonpayable",
      "type": "function"
    },
    {
      "inputs": [
        {
          "internalType": "string",
          "name": "_drugId",
          "type": "string"
        },
        {
          "internalType": "string",
          "name": "_name",
          "type": "string"
        },
        {
          "internalType": "string",
          "name": "_activeIngredient",
          "type": "string"
        },
        {
          "internalType": "string",
          "name": "_qualityTestResult",
          "type": "string"
        }
      ],
      "name": "updateDrugBatch",
      "outputs": [],
      "stateMutability": "nonpayable",
      "type": "function"
    },
    {
      "inputs": [
        {
          "internalType": "string",
          "name": "_drugId",
          "type": "string"
        },
        {
          "internalType": "string",
          "name": "_reason",
          "type": "string"
        }
      ],
      "name": "recallDrugBatch",
      "outputs": [],
      "stateMutability": "nonpayable",
      "type": "function"
    },
    {
      "inputs": [
        {
          "internalType": "string",
          "name": "_drugId",
          "type": "string"
        },
        {
          "internalType": "address",
          "name": "_to",
          "type": "address"
        },
        {
          "internalType": "string",
          "name": "_location",
          "type": "string"
        },
        {
          "internalType": "string",
          "name": "_status",
          "type": "string"
        },
        {
          "internalType": "string",
          "name": "_notes",
          "type": "string"
        }
      ],
      "name": "recordDistribution",
      "outputs": [],
      "stateMutability": "nonpayable",
      "type": "function"
    },
    {
      "inputs": [
        {
          "internalType": "string",
          "name": "_drugId",
          "type": "string"
        },
        {
          "internalType": "address[]",
          "name": "_toAddresses",
          "type": "address[]"
        },
        {
          "internalType": "string[]",
          "name": "_locations",
          "type": "string[]"
        },
        {
          "internalType": "string[]",
          "name": "_statuses",
          "type": "string[]"
        },
        {
          "internalType": "string[]",
          "name": "_notes",
          "type": "string[]"
        }
      ],
      "name": "recordDistributionBatch",
      "outputs": [],
      "stateMutability": "nonpayable",
      "type": "function"
    },
    {
      "inputs": [
        {
          "internalType": "string",
          "name": "_drugId",
          "type": "string"
        }
      ],
      "name": "getDrugBatch",
      "outputs": [
        {
          "internalType": "string",
          "name": "",
          "type": "string"
        },
        {
          "internalType": "string",
          "name": "",
          "type": "string"
        },
        {
          "internalType": "string",
          "name": "",
          "type": "string"
        },
        {
          "internalType": "string",
          "name": "",
          "type": "string"
        },
        {
          "internalType": "string",
          "name": "",
          "type": "string"
        },
        {
          "internalType": "uint256",
          "name": "",
          "type": "uint256"
        },
        {
          "internalType": "uint256",
          "name": "",
          "type": "uint256"
        },
        {
          "internalType": "string",
          "name": "",
          "type": "string"
        },
        {
          "internalType": "string",
          "name": "",
          "type": "string"
        },
        {
          "internalType": "address",
          "name": "",
          "type": "address"
        },
        {
          "internalType": "uint256",
          "name": "",
          "type": "uint256"
        },
        {
          "internalType": "bool",
          "name": "",
          "type": "bool"
        },
        {
          "internalType": "bool",
          "name": "",
          "type": "bool"
        },
        {
          "internalType": "string",
          "name": "",
          "type": "string"
        },
        {
          "internalType": "uint256",
          "name": "",
          "type": "uint256"
        }
      ],
      "stateMutability": "view",
      "type": "function"
    },
    {
      "inputs": [
        {
          "internalType": "string",
          "name": "_drugId",
          "type": "string"
        }
      ],
      "name": "getDistributionHistory",
      "outputs": [
        {
          "internalType": "address[]",
          "name": "",
          "type": "address[]"
        },
        {
          "internalType": "address[]",
          "name": "",
          "type": "address[]"
        },
        {
          "internalType": "uint256[]",
          "name": "",
          "type": "uint256[]"
        },
        {
          "internalType": "string[]",
          "name": "",
          "type": "string[]"
        },
        {
          "internalType": "string[]",
          "name": "",
          "type": "string[]"
        },
        {
          "internalType": "string[]",
          "name": "",
          "type": "string[]"
        }
      ],
      "stateMutability": "view",
      "type": "function"
    },
    {
      "inputs": [],
      "name": "getTotalDrugBatches",
      "outputs": [
        {
          "internalType": "uint256",
          "name": "",
          "type": "uint256"
        }
      ],
      "stateMutability": "view",
      "type": "function"
    },
    {
      "inputs": [
        {
          "internalType": "string",
          "name": "_drugId",
          "type": "string"
        }
      ],
      "name": "drugBatchExists",
      "outputs": [
        {
          "internalType": "bool",
          "name": "",
          "type": "bool"
        }
      ],
      "stateMutability": "view",
      "type": "function"
    },
    {
      "inputs": [],
      "name": "getAllDrugIds",
      "outputs": [
        {
          "internalType": "string[]",
          "name": "",
          "type": "string[]"
        }
      ],
      "stateMutability": "view",
      "type": "function"
    },
    {
      "inputs": [
        {
          "internalType": "uint256",
          "name": "_offset",
          "type": "uint256"
        },
        {
          "internalType": "uint256",
          "name": "_limit",
          "type": "uint256"
        }
      ],
      "name": "getDrugIdsPaginated",
      "outputs": [
        {
          "internalType": "string[]",
          "name": "drugIds",
          "type": "string[]"
        },
        {
          "internalType": "uint256",
          "name": "total",
          "type": "uint256"
        }
      ],
      "stateMutability": "view",
      "type": "function"
    },
    {
      "inputs": [
        {
          "internalType": "string",
          "name": "_drugId",
          "type": "string"
        }
      ],
      "name": "verifyDrugBatch",
      "outputs": [
        {
          "internalType": "bool",
          "name": "isValid",
          "type": "bool"
        },
        {
          "internalType": "bool",
          "name": "isExpired",
          "type": "bool"
        },
        {
          "internalType": "bool",
          "name": "isRecalled",
          "type": "bool"
        },
        {
          "internalType": "string",
          "name": "status",
          "type": "string"
        }
      ],
      "stateMutability": "view",
      "type": "function"
    },
    {
      "inputs": [],
      "name": "getContractStats",
      "outputs": [
        {
          "internalType": "uint256",
          "name": "totalBatches",
          "type": "uint256"
        },
        {
          "internalType": "uint256",
          "name": "activeBatches",
          "type": "uint256"
        },
        {
          "internalType": "uint256",
          "name": "recalledBatches",
          "type": "uint256"
        },
        {
          "internalType": "uint256",
          "name": "expiredBatches",
          "type": "uint256"
        }
      ],
      "stateMutability": "view",
      "type": "function"
    },
    {
      "inputs": [
        {
          "internalType": "string",
          "name": "_name",
          "type": "string"
        }
      ],
      "name": "searchDrugBatchesByName",
      "outputs": [
        {
          "internalType": "string[]",
          "name": "",
          "type": "string[]"
        }
      ],
      "stateMutability": "view",
      "type": "function"
    },
    {
      "inputs": [
        {
          "internalType": "string",
          "name": "_drugId",
          "type": "string"
        },
        {
          "internalType": "uint256",
          "name": "_offset",
          "type": "uint256"
        },
        {
          "internalType": "uint256",
          "name": "_limit",
          "type": "uint256"
        }
      ],
      "name": "getDistributionHistoryPaginated",
      "outputs": [
        {
          "internalType": "address[]",
          "name": "",
          "type": "address[]"
        },
        {
          "internalType": "address[]",
          "name": "",
          "type": "address[]"
        },
        {
          "internalType": "uint256[]",
          "name": "",
          "type": "uint256[]"
        },
        {
          "internalType": "string[]",
          "name": "",
          "type": "string[]"
        },
        {
          "internalType": "string[]",
          "name": "",
          "type": "string[]"
        },
        {
          "internalType": "string[]",
          "name": "",
          "type": "string[]"
        },
        {
          "internalType": "uint256",
          "name": "totalRecords",
          "type": "uint256"
        }
      ],
      "stateMutability": "view",
      "type": "function"
    },
    {
      "inputs": [
        {
          "internalType": "string",
          "name": "_drugId",
          "type": "string"
        },
        {
          "internalType": "bool",
          "name": "_isValid",
          "type": "bool"
        }
      ],
      "name": "recordVerification",
      "outputs": [],
      "stateMutability": "nonpayable",
      "type": "function"
    }
  ],
  "bytecode": "0x6080806040523461002857600480546001600160a01b03191633179055612d1f908161002e8239f35b600080fdfe6080604052600436101561001257600080fd5b60003560e01c8063102600ce14611b01578063146cdb9c14611a9b57806321571ac914611a5b578063250a38cb146119325780632706cb41146119145780632f5538af146116875780634028484b146116265780635001a8af146114a557806355051bb0146111f857806355d586f714611106578063617a9b871461109e5780638077366d14610ed95780638203eb8914610ad75780638da5cb5b14610aae5780638f36e6ef14610a175780639474e53114610780578063a424954f146106bf578063ab6ed2e914610525578063bde768fc14610379578063cfdbf2541461035d578063dfe6b5d6146101cd5763ffc13a8e1461010e57600080fd5b346101c85760403660031901126101c8576001600160401b036004358181116101c85761013f9036906004016120e2565b602435918215158093036101c857600160405160208185516101648183858a01612216565b81016000815203019020015460401c16156101b657610182906125d8565b6040519182524260208301527f02f2b8642400c967d654059fbfa240bbedc61f80bd5f36f9a3b494eeee06c4c060403393a3005b604051635140917160e11b8152600490fd5b600080fd5b346101c85760003660031901126101c85760028054600091600080916000905b848210610210575050608093604051938452602084015260408301526060820152f35b909161022461021e8461232b565b506129ad565b906040519161023283612027565b805460018060a01b03811684526001600160401b03918260a092831c1660208601526001946101c06103226009888501549460408501968887168852888760401c16606087015260808988821c169087015260ff9060c0908289831c1615159088015286019660c81c16151586526102ab8b82016123b2565b60e08601526102bc600382016123b2565b6101008601526102ce600482016123b2565b6101208601526102e0600582016123b2565b6101408601526102f2600682016123b2565b610160860152610304600782016123b2565b610180860152610316600882016123b2565b6101a0860152016123b2565b910152511561033a57505001916001905b01906101ed565b519495919416421115610351570192600190610333565b95019492600190610333565b346101c85760003660031901126101c857602060405160328152f35b346101c8576020806003193601126101c8576001600160401b03906004358281116101c8576103ac9036906004016120e2565b6002928354906103bb82612744565b946000938581519101209060005b84811061042c578787876103dc81612744565b9260005b828110610402575050506103fe60405192828493845283019061225e565b0390f35b8061040f6001928461265e565b5161041a828861265e565b52610425818761265e565b50016103e0565b61043861021e8261232b565b836040519161044683612027565b80549260018060a01b03841681528760a094851c168b820152600193848301548981166040840152898160401c16606084015260808a82821c169084015260ff9060c0928282851c1615159085015260c81c161515908201526104aa8683016123b2565b60e08201526101c06104d860096104c3600386016123b2565b9461010085019586526102ce600482016123b2565b91015251898151910120146104f1575b506001016103c9565b819661050761050160019461232b565b506123b2565b610511828c61265e565b5261051c818b61265e565b500195906104e8565b346101c85760403660031901126101c8576001600160401b036004358181116101c8576105569036906004016120e2565b6024358281116101c85761056e9036906004016120e2565b6004549091906001600160a01b031633036106ae57604051928151918160016020968781818601976105a181838b612216565b81016000815203019020015460401c16156101b65761068561068a92600161064c887f1711582b0042fe2c8762327b037aaa78dee6a2e68f3158b6ec860652e43dde0d978360405183818a516105f8818388612216565b81016000815203019020018460c81b60ff60c81b1982541617905561063b8a600960405185818c5161062b81838a612216565b810160008152030190200161249a565b604051809381928951928391612216565b60009082019081520301902001805467ffffffffffffffff60801b19164290921660801b67ffffffffffffffff60801b16919091179055565b6125d8565b916106a060405191604083526040830190612239565b9342908201528033940390a3005b6040516282b42960e81b8152600490fd5b346101c85760603660031901126101c8576004356001600160401b0381116101c85760e061075a61077661073e61076861071061070361074c9736906004016120e2565b6044359060243590612a40565b999461073060409d949593979d999299519d8d8f9e8f90815201906122ba565b8c810360208e0152906122ba565b908a820360408c01526122f7565b9088820360608a015261225e565b90868203608088015261225e565b9084820360a086015261225e565b9060c08301520390f35b346101c85760a0806003193601126101c8576001600160401b036004358181116101c8576107b29036906004016120e2565b602435928284116101c857366023850112156101c8578360040135906107d7826120cb565b946107e560405196876120aa565b82865260209260248488019160051b830101913683116101c857602401905b8282106109f8575050506044358481116101c857610826903690600401612138565b946064358581116101c85761083f903690600401612138565b6084358681116101c857610857903690600401612138565b6004546001600160a01b039391929190841633036106ae57604051875189888a0191610884818585612216565b830160008152838a600195869303019020015460401c16156101b65760ff826040518a818d516108b5818389612216565b81016000815203019020015460c81c166109e6576108e383518c51811490816109da575b5090839b916125f8565b6000904216925b6108f057005b83518110156109d8576109d28161098a8b8f8f95908f8b61095c8f948f93818f97818f918f826109378e61094e96610946946109559a604051948593849251928391612216565b8201908152030190209c61265e565b51169861265e565b519461265e565b519361265e565b51926040519561096b87612059565b3387528601528a6040860152606085015260808401528d830152612672565b8b8b6109a28b61099a858b61265e565b5116926125d8565b7f52236c5d2e939cde6cc7af1cec9ba91415370a828dc1ec729db6db0dd6398854604051924284523393a4612639565b906108ea565b005b6032915011158d6108d9565b604051631c2f681960e21b8152600490fd5b81356001600160a01b03811681036101c8578152908401908401610804565b346101c85760003660031901126101c857600254610a34816120cb565b90610a4260405192836120aa565b80825260209081830160026000527f405787fa12a823e0f2b7631cc41b3ba8828b3321ca811111fa75cd3aa3bb5ace836000925b848410610a9057604051828152806103fe8185018a61225e565b6001918291610a9e856123b2565b8152019201920191908490610a76565b346101c85760003660031901126101c8576004546040516001600160a01b039091168152602090f35b346101c8576101203660031901126101c8576004356001600160401b0381116101c857610b089036906004016120e2565b6024356001600160401b0381116101c857610b279036906004016120e2565b906044356001600160401b0381116101c857610b479036906004016120e2565b906064356001600160401b0381116101c857610b679036906004016120e2565b6084356001600160401b0381116101c857610b869036906004016120e2565b9260e4356001600160401b0381116101c857610ba69036906004016120e2565b610104356001600160401b0381116101c857610bc69036906004016120e2565b6004549091906001600160a01b031633036106ae57845115610ec7576001600160401b03600160405160208181610c038b83815193849201612216565b81016000815203019020015460401c16610eb55760a43560c4351115610ea357610e5e95610e2d9460405194610c3886612027565b3386526001600160401b0360a4351660208701526001600160401b0360c4351660408701526001600160401b034216606087015260006080870152600160a0870152600060c08701528760e0870152896101008701526101208601526101408501526101608401526101808301526101a0820152604051610cb881612074565b600081526101c082015260096101c06040516020818751610cdc8183858c01612216565b6000908201908152030190208351815460208601516001600160e01b03199091166001600160a01b039092169190911760a091821b67ffffffffffffffff60a01b1617825560408086015160018401805460608901516080808b0151968b015160c0808d015160ff60c81b90151560c81b1660ff60c01b92151590911b919091166001600160d01b03199094166001600160401b03909616959095179190951b67ffffffffffffffff60401b16179490931b67ffffffffffffffff60801b16939093179190911717905592610db860e08201516002860161249a565b610dca6101008201516003860161249a565b610ddc6101208201516004860161249a565b610dee6101408201516005860161249a565b610e006101608201516006860161249a565b610e126101808201516007860161249a565b610e246101a08201516008860161249a565b0151910161249a565b610e36816125a9565b6002546040516020818451610e4e8183858901612216565b81016003815203019020556125d8565b7f5475690a8c671a949bdf53ab772647504dfa0cfccf7e005de0af5e916eb1d30b610e9460405193604085526040850190612239565b924260208201528033940390a3005b6040516305391a9760e41b8152600490fd5b604051637504311960e11b8152600490fd5b604051630de3fc7f60e11b8152600490fd5b346101c85760203660031901126101c8576004356001600160401b0381116101c857610f099036906004016120e2565b6040518181809351602081930191610f2092612216565b810160008152036020019020805460018201549160028101610f41906123b2565b90610f4e600382016123b2565b610f5a600483016123b2565b610f66600584016123b2565b610f72600685016123b2565b91610f7f600786016123b2565b93610f8c600887016123b2565b95600901610f99906123b2565b96604051998a99600160a01b6001900381168b5260a01c6001600160401b031660208b01526001600160401b03811660408b01528060401c6001600160401b031660608b01528060801c6001600160401b031660808b01528060c01c60ff16151560a08b015260c81c60ff16151560c08a01526101e08060e08b0152890161102091612239565b8881036101008a015261103291612239565b87810361012089015261104491612239565b86810361014088015261105691612239565b85810361016087015261106891612239565b84810361018086015261107a91612239565b8381036101a085015261108c91612239565b8281036101c08401526103fe91612239565b346101c85760203660031901126101c8576004356001600160401b0381116101c8576110d96110d46103fe9236906004016120e2565b612837565b90604094929451948594151585521515602085015215156040840152608060608401526080830190612239565b346101c85760403660031901126101c8576001600160401b036004358181116101c8576111379036906004016120e2565b6111536020602435928160405193828580945193849201612216565b810160018152030190209081548110156101c8576111709161247e565b506103fe60018060a01b03926111ea84845416936111dc600182015493611199600284016123b2565b906111b260046111ab600387016123b2565b95016123b2565b95604051998a998a52811660208a015260a01c16604088015260c0606088015260c0870190612239565b908582036080870152612239565b9083820360a0850152612239565b346101c85760203660031901126101c8576004356001600160401b0381116101c8576112289036906004016120e2565b604051818180935160208193019161123f92612216565b8101600081520360200190206040519061125882612027565b8054600160a01b600190038116835260a01c6001600160401b0316602083015260018101546001600160401b03811660408401528060401c6001600160401b031660608401528060801c6001600160401b031660808401528060c01c60ff16151560a084015260c81c60ff16151560c0830152600281016112d8906123b2565b60e08301526112e9600382016123b2565b6101008301526112fb600482016123b2565b61012083015261130d600582016123b2565b61014083015261131f600682016123b2565b610160830152611331600782016123b2565b610180830152611343600882016123b2565b6101a0830152600901611355906123b2565b806101c083015260e0820151916101008101519161012082015191610140810151906101608101519160208201516001600160401b03169260408301516001600160401b0316936101808401516101a085015191600160a01b600190038651169660608701516001600160401b03169460a088015115159660c0890151151598608001516001600160401b03169b6040519e8f9e8f916101e080845283016113fc91612239565b828103602084015261140d91612239565b90808203906040015261141f91612239565b8d810360608f015261143091612239565b8c810360808e015261144191612239565b9160a08c015260c08b015289810360e08b015261145d91612239565b8881036101008a015261146f91612239565b936101208801526101408701526101608601526101808501528381036101a085015261149a91612239565b906101c08301520390f35b346101c85760a03660031901126101c8576001600160401b036004358181116101c8576114d69036906004016120e2565b6001600160a01b03602435818116939192908490036101c8576044358281116101c8576115079036906004016120e2565b926064358381116101c8576115209036906004016120e2565b926084358181116101c8576115399036906004016120e2565b916004541633036106ae57604051948351928260016020988981818a019861156281838c612216565b81016000815203019020015460401c16156101b65760ff60016040518981895161158d81838c612216565b81016000815203019020015460c81c166109e6576115f9956115be8861068596604051809381928b51928391612216565b8101600181520301902092604051946115d686612059565b3386528a8a870152421660408601526060850152608084015260a0830152612672565b7f52236c5d2e939cde6cc7af1cec9ba91415370a828dc1ec729db6db0dd6398854604051924284523393a4005b346101c85760203660031901126101c8576004356002548110156101c85761164d9061232b565b6116715761165d6103fe916123b2565b604051918291602083526020830190612239565b634e487b7160e01b600052600060045260246000fd5b346101c8576020806003193601126101c8576001600160401b036004358181116101c8576116b99036906004016120e2565b826116cd6040519283815193849201612216565b8101908381600193848152030190209081546116e8816120cb565b926116f660405194856120aa565b8184526000908152858120838786015b8885851061189d5788888481519061171d82612712565b9461172783612712565b61173084612712565b9261173a85612744565b9461174481612744565b9661174e82612744565b9860005b8381106117cd5750508960c06103fe8b6117bf8c6117b18d6117a38e6117958f8f6117886040519d8d8f9e8f90815201906122ba565b918c8303908d01526122ba565b9089820360408b01526122f7565b90878203606089015261225e565b90858203608087015261225e565b9083820360a085015261225e565b84906001600160a01b038d6117f083836117e7828a61265e565b5151169261265e565b52886117fc838761265e565b5101511661180a828961265e565b52826040611818838761265e565b51015116611826828b61265e565b526060611833828661265e565b510151611840828c61265e565b5261184b818b61265e565b506080611858828661265e565b510151611865828d61265e565b52611870818c61265e565b508b61188b8260a0611882828961265e565b5101519261265e565b52611896818d61265e565b5001611752565b6005916040516118ac81612059565b85546001600160a01b039081168252858701549081168483015260a090811c8c1660408301526118de600288016123b2565b60608301526118ef600388016123b2565b6080830152611900600488016123b2565b908201528152019201920191908490611706565b346101c85760003660031901126101c8576020600254604051908152f35b346101c85760803660031901126101c8576001600160401b036004358181116101c8576119639036906004016120e2565b6024358281116101c85761197b9036906004016120e2565b906044358381116101c8576119949036906004016120e2565b6064358481116101c8576119ac9036906004016120e2565b6004546001600160a01b031633036106ae576040519483519060016020978881818901956119db818389612216565b81016000815203019020015460401c16156101b65761062b8660079261063b61068596611a1a611a2e9a60038b8760405180925161062b81838c612216565b600460405185818c5161062b81838a612216565b7f799c5318713a83d71e689ac76029b3f6815fd4a6fff91beb62e6b731444e72e5604051924284523393a3005b346101c85760403660031901126101c857611a91611a7d6024356004356127a8565b60405192839260408452604084019061225e565b9060208301520390f35b346101c85760203660031901126101c8576004356001600160401b038082116101c8576001611ae76020611ad4819536906004016120e2565b8160405193828580945193849201612216565b81016000815203019020015460401c161515604051908152f35b346101c8576101203660031901126101c8576004356001600160401b0381116101c857611b32903690600401612138565b6024356001600160401b0381116101c857611b51903690600401612138565b6044356001600160401b0381116101c857611b70903690600401612138565b906064356001600160401b0381116101c857611b90903690600401612138565b926084356001600160401b0381116101c857611bb0903690600401612138565b60a4356001600160401b0381116101c857611bcf9036906004016121b8565b60c4356001600160401b0381116101c857611bee9036906004016121b8565b9060e4356001600160401b0381116101c857611c0e903690600401612138565b92610104356001600160401b0381116101c857611c2f903690600401612138565b6004549098906001600160a01b031633036106ae57611c60865188518114908161201c575b81612010575b506125f8565b60005b86518110156109d857808a868686868e8e8e611c808f9a8261265e565b515115611ffe576001600160401b036001611ca4611c9e8c8561265e565b51612458565b015460401c16611ffe57611cb8898861265e565b51611cc38a8861265e565b511015611ffe57968899899897899897899897899897899897899897611cea8a809a61265e565b5198611cf59161265e565b5198611d009161265e565b5198611d0b9161265e565b5198611d169161265e565b5198611d219161265e565b516001600160401b03169a611d359161265e565b516001600160401b031698611d499161265e565b5196611d549161265e565b519660405198611d638a612027565b338a5260208a01526040890152426001600160401b03166060890152608088016000905260a088016001905260c088016000905260e08801526101008701526101208601526101408501526101608401526101808301526101a0820152604051611dcc81612074565b600081526101c0820152611de0828961265e565b51611dea90612458565b81518154602084015167ffffffffffffffff60a01b60a09190911b166001600160a01b039092166001600160e01b031990911617178155604082810151600183018054606086015160808088015167ffffffffffffffff60801b911b16941b67ffffffffffffffff60401b166001600160401b039093166001600160c01b0319909116179190911791909117815560a0830151815460c08086015161ffff60c01b19909216921515901b60ff60c01b169190911790151560c81b60ff60c81b1617905560e082015160029190611ec29083830161249a565b61010083015160039390611ed89083860161249a565b610120810151611eeb906004840161249a565b610140810151611efe906005840161249a565b610160810151611f11906006840161249a565b610180810151611f24906007840161249a565b6101a0810151611f37906008840161249a565b6101c00151611f489160090161249a565b611f52838a61265e565b51611f5c906125a9565b5490611f68838a61265e565b51604051918183809351602081930191611f8192612216565b820190815203602001902055611f97818861265e565b51611fa2828a61265e565b5190611fad906125d8565b604051916040835260408301611fc291612239565b91426020820152803393037f5475690a8c671a949bdf53ab772647504dfa0cfccf7e005de0af5e916eb1d30b91a3611ff990612639565b611c63565b5050505050505050611ff99150612639565b6032915011158b611c5a565b8a5181149150611c54565b6101e081019081106001600160401b0382111761204357604052565b634e487b7160e01b600052604160045260246000fd5b60c081019081106001600160401b0382111761204357604052565b602081019081106001600160401b0382111761204357604052565b604081019081106001600160401b0382111761204357604052565b90601f801991011681019081106001600160401b0382111761204357604052565b6001600160401b0381116120435760051b60200190565b81601f820112156101c8578035906001600160401b0382116120435760405192612116601f8401601f1916602001856120aa565b828452602083830101116101c857816000926020809301838601378301015290565b9080601f830112156101c857813590612150826120cb565b9261215e60405194856120aa565b828452602092838086019160051b830101928084116101c857848301915b84831061218c5750505050505090565b82356001600160401b0381116101c85786916121ad848480948901016120e2565b81520192019161217c565b81601f820112156101c8578035916121cf836120cb565b926121dd60405194856120aa565b808452602092838086019260051b8201019283116101c8578301905b828210612207575050505090565b813581529083019083016121f9565b60005b8381106122295750506000910152565b8181015183820152602001612219565b9060209161225281518092818552858086019101612216565b601f01601f1916010190565b908082519081815260208091019281808460051b8301019501936000915b84831061228c5750505050505090565b90919293949584806122aa600193601f198682030187528a51612239565b980193019301919493929061227c565b90815180825260208080930193019160005b8281106122da575050505090565b83516001600160a01b0316855293810193928101926001016122cc565b90815180825260208080930193019160005b828110612317575050505090565b835185529381019392810192600101612309565b6002548110156123625760026000527f405787fa12a823e0f2b7631cc41b3ba8828b3321ca811111fa75cd3aa3bb5ace0190600090565b634e487b7160e01b600052603260045260246000fd5b90600182811c921680156123a8575b602083101461239257565b634e487b7160e01b600052602260045260246000fd5b91607f1691612387565b90604051918260008254926123c684612378565b90818452600194858116908160001461243557506001146123f2575b50506123f0925003836120aa565b565b9093915060005260209081600020936000915b81831061241d5750506123f0935082010138806123e2565b85548884018501529485019487945091830191612405565b9150506123f094506020925060ff191682840152151560051b82010138806123e2565b6020612471918160405193828580945193849201612216565b8101600081520301902090565b8054821015612362576000526005602060002091020190600090565b91909182516001600160401b038111612043576124b78254612378565b601f8111612561575b50602080601f83116001146124fd5750819293946000926124f2575b50508160011b916000199060031b1c1916179055565b0151905038806124dc565b90601f198316958460005282600020926000905b88821061254957505083600195969710612530575b505050811b019055565b015160001960f88460031b161c19169055388080612526565b80600185968294968601518155019501930190612511565b600083815260208120601f840160051c8101926020851061259f575b601f0160051c01915b8281106125945750506124c0565b818155600101612586565b909250829061257d565b600254600160401b811015612043578060016125c8920160025561232b565b919091611671576123f09161249a565b6125f090602060405192828480945193849201612216565b810103902090565b156125ff57565b60405162461bcd60e51b8152602060048201526012602482015271496e76616c69642062617463682073697a6560701b6044820152606490fd5b60001981146126485760010190565b634e487b7160e01b600052601160045260246000fd5b80518210156123625760209160051b010190565b8054600160401b8110156120435761268f9160018201815561247e565b61167157815181546001600160a01b0319166001600160a01b03918216178255602083015160018301805460408601516001600160e01b0319909116929093169190911760a092831b67ffffffffffffffff60a01b161790556123f0926004919061270160608201516002860161249a565b610e2460808201516003860161249a565b9061271c826120cb565b61272960405191826120aa565b828152809261273a601f19916120cb565b0190602036910137565b9061274e826120cb565b61275b60405191826120aa565b828152809261276c601f19916120cb565b019060005b82811061277d57505050565b806060602080938501015201612771565b9190820180921161264857565b9190820391821161264857565b600254929183821015612821576127bf908261278e565b81848211612819575b6127d19161279b565b6127da81612744565b9160005b8281106127ec575050509190565b806127fd610501600193850161232b565b612807828761265e565b52612812818661265e565b50016127de565b8491506127c8565b505060405161282f81612074565b600081529190565b604090815181818093516128518160209687809601612216565b8101600081520301902092825161286781612027565b84549060018060a01b03821681526001600160401b03809260a01c1684820152816001870154968683019282891684526101c06128df60096060840194868d8d1c168652868d60801c16608086015260ff8d60c01c16151560a086015260ff60c086019d60c81c1615158d526102ab600282016123b2565b91015251161561297d575116421193511591821593846000146129315767149958d85b1b195960c21b9051916129148361208f565b60088352820152915b80612929575b93929190565b508315612923565b851561295b5766115e1c1a5c995960ca1b90519161294e8361208f565b600783528201529161291d565b6415985b1a5960da1b9051916129708361208f565b600583528201529161291d565b505092509060009260009268139bdd08119bdd5b9960ba1b60009351916129a38361208f565b6009835282015290565b6040519081600082546129bf81612378565b93600191808316908115612a2457506001146129e7575b505060209250600081520301902090565b90915060005260209081600020906000915b858310612a105750505050602091810138806129d6565b8054878401528694509183019181016129f9565b92505050602093915060ff1916825280151502810138806129d6565b909291926040928351948351612a5b81886020809801612216565b86019584816001988981520301902091825496612a77886120cb565b97612a848851998a6120aa565b80895286890160009586528786208387925b8a858510612c685750505050505087519283861015612c2657612ab9908661278e565b85848211612c1e575b612ace9197969761279b565b90612ad882612712565b91612ae281612712565b99612aec82612712565b998a98612af884612744565b9a8d8c612b0487612744565b9c8d9c8a612b118a612744565b9e8f92945b8b8610612b33575050505050505050505050505096959493929190565b8580958b8f998c8f918590818f01998a9383600160a01b600190039283612b5a888a61265e565b51511691612b679161265e565b52612b72858761265e565b5101511691612b809161265e565b52612b8a9161265e565b5101516001600160401b031691612ba09161265e565b5284612bac848d61265e565b5160600151612bbb828461265e565b52612bc59161265e565b5083612bd1838c61265e565b5160800151612be0828461265e565b52612bea9161265e565b50612bf5908961265e565b5160a0015191612c049161265e565b52612c0f818d61265e565b50018e908e8c8f8f8c91612b16565b849150612ac2565b505092509250928094505193612c3b85612074565b838552805190612c4a82612074565b8482525193612c5885612074565b8085523681378493928192829190565b6005918d805190612c7882612059565b86546001600160a01b039081168352868801549081168584015260a090811c6001600160401b031691830191909152612cb3600288016123b2565b6060830152612cc4600388016123b2565b6080830152612cd5600488016123b2565b908201528152019201920191908490612a9656fea264697066735822122041d51dfd58f876a1283be338a529d83cdb5802c8d809e0cfb6fc27193e42a34364736f6c63430008130033",
  "immutableReferences": {},
  "source": "// SPDX-License-Identifier: MIT\r\npragma solidity ^0.8.19;\r\n\r\n// Custom errors  tit kim gas (r hn require vi string)\r\nerror DrugIdEmpty();\r\nerror DrugIdExists();\r\nerror InvalidExpiryDate();\r\nerror DrugNotFound();\r\nerror DrugRecalled();\r\nerror Unauthorized();\r\n\r\ncontract DrugTraceability {\r\n    // Packed struct  tit kim storage slots\r\n    struct DrugBatch {\r\n        address createdBy;           // 20 bytes\r\n        uint64 productionDate;       // 8 bytes\r\n        uint64 expiryDate;           // 8 bytes\r\n        uint64 createdAt;            // 8 bytes\r\n        uint64 recallDate;           // 8 bytes\r\n        bool isActive;               // 1 byte\r\n        bool isRecalled;             // 1 byte\r\n        // Total: 54 bytes, fits in 2 slots (64 bytes)\r\n        string drugId;               // Slot 3\r\n        string name;                 // Slot 4+\r\n        string activeIngredient;     // Slot 5+\r\n        string manufacturerId;       // Slot 6+\r\n        string batchNumber;          // Slot 7+\r\n        string qualityTestResult;    // Slot 8+\r\n        string qrCodeData;           // Slot 9+\r\n        string recallReason;         // Slot 10+\r\n    }\r\n    \r\n    // Packed struct cho lch s phn phi\r\n    struct DistributionRecord {\r\n        address from;                // 20 bytes\r\n        address to;                  // 20 bytes\r\n        uint64 timestamp;            // 8 bytes\r\n        // Total: 48 bytes, fits in 1 slot\r\n        string location;             // Slot 2+\r\n        string status;               // Slot 3+\r\n        string notes;                // Slot 4+\r\n    }\r\n    \r\n    // Mapping lu tr thng tin l thuc\r\n    mapping(string => DrugBatch) public drugBatches;\r\n    \r\n    // Mapping lu tr lch s phn phi\r\n    mapping(string => DistributionRecord[]) public distributionHistory;\r\n    \r\n    // Array lu tr tt c drug IDs (ti u ha bng cch s dng mapping)\r\n    string[] public allDrugIds;\r\n    mapping(string => uint256) private drugIdIndex; // Index ca drugId trong array\r\n    \r\n    // Owner ca contract\r\n    address public owner;\r\n    \r\n    // Batch size limit  trnh gas limit\r\n    uint256 public constant MAX_BATCH_SIZE = 50;\r\n    \r\n    // Events vi indexed parameters  tit kim gas\r\n    event DrugBatchCreated(\r\n        string indexed drugId,\r\n        string name,\r\n        address indexed createdBy,\r\n        uint256 timestamp\r\n    );\r\n    \r\n    event DrugBatchUpdated(\r\n        string indexed drugId,\r\n        address indexed updatedBy,\r\n        uint256 timestamp\r\n    );\r\n    \r\n    event DrugBatchRecalled(\r\n        string indexed drugId,\r\n        string reason,\r\n        address indexed recalledBy,\r\n        uint256 timestamp\r\n    );\r\n    \r\n    event DistributionRecorded(\r\n        string indexed drugId,\r\n        address indexed from,\r\n        address indexed to,\r\n        uint256 timestamp\r\n    );\r\n    \r\n    event DrugBatchVerified(\r\n        string indexed drugId,\r\n        address indexed verifier,\r\n        bool isValid,\r\n        uint256 timestamp\r\n    );\r\n    \r\n    // Modifier ch cho php owner\r\n    modifier onlyOwner() {\r\n        if (msg.sender != owner) revert Unauthorized();\r\n        _;\r\n    }\r\n    \r\n    // Constructor\r\n    constructor() {\r\n        owner = msg.sender;\r\n    }\r\n    \r\n    // To l thuc mi (ti u ha)\r\n    function createDrugBatch(\r\n        string memory _drugId,\r\n        string memory _name,\r\n        string memory _activeIngredient,\r\n        string memory _manufacturerId,\r\n        string memory _batchNumber,\r\n        uint256 _productionDate,\r\n        uint256 _expiryDate,\r\n        string memory _qualityTestResult,\r\n        string memory _qrCodeData\r\n    ) external onlyOwner {\r\n        if (bytes(_drugId).length == 0) revert DrugIdEmpty();\r\n        if (drugBatches[_drugId].createdAt > 0) revert DrugIdExists();\r\n        if (_expiryDate <= _productionDate) revert InvalidExpiryDate();\r\n        \r\n        drugBatches[_drugId] = DrugBatch({\r\n            drugId: _drugId,\r\n            name: _name,\r\n            activeIngredient: _activeIngredient,\r\n            manufacturerId: _manufacturerId,\r\n            batchNumber: _batchNumber,\r\n            productionDate: uint64(_productionDate),\r\n            expiryDate: uint64(_expiryDate),\r\n            qualityTestResult: _qualityTestResult,\r\n            qrCodeData: _qrCodeData,\r\n            createdBy: msg.sender,\r\n            createdAt: uint64(block.timestamp),\r\n            isActive: true,\r\n            isRecalled: false,\r\n            recallReason: \"\",\r\n            recallDate: 0\r\n        });\r\n        \r\n        allDrugIds.push(_drugId);\r\n        drugIdIndex[_drugId] = allDrugIds.length; // Index + 1 (0 = khng tn ti)\r\n        \r\n        emit DrugBatchCreated(_drugId, _name, msg.sender, block.timestamp);\r\n    }\r\n    \r\n    // Batch create  tit kim gas khi to nhiu l thuc\r\n    function createDrugBatchBatch(\r\n        string[] memory _drugIds,\r\n        string[] memory _names,\r\n        string[] memory _activeIngredients,\r\n        string[] memory _manufacturerIds,\r\n        string[] memory _batchNumbers,\r\n        uint256[] memory _productionDates,\r\n        uint256[] memory _expiryDates,\r\n        string[] memory _qualityTestResults,\r\n        string[] memory _qrCodeData\r\n    ) external onlyOwner {\r\n        require(_drugIds.length == _names.length && \r\n                _drugIds.length == _activeIngredients.length &&\r\n                _drugIds.length <= MAX_BATCH_SIZE, \"Invalid batch size\");\r\n        \r\n        for (uint256 i = 0; i < _drugIds.length; i++) {\r\n            if (bytes(_drugIds[i]).length == 0) continue;\r\n            if (drugBatches[_drugIds[i]].createdAt > 0) continue;\r\n            if (_expiryDates[i] <= _productionDates[i]) continue;\r\n            \r\n            drugBatches[_drugIds[i]] = DrugBatch({\r\n                drugId: _drugIds[i],\r\n                name: _names[i],\r\n                activeIngredient: _activeIngredients[i],\r\n                manufacturerId: _manufacturerIds[i],\r\n                batchNumber: _batchNumbers[i],\r\n                productionDate: uint64(_productionDates[i]),\r\n                expiryDate: uint64(_expiryDates[i]),\r\n                qualityTestResult: _qualityTestResults[i],\r\n                qrCodeData: _qrCodeData[i],\r\n                createdBy: msg.sender,\r\n                createdAt: uint64(block.timestamp),\r\n                isActive: true,\r\n                isRecalled: false,\r\n                recallReason: \"\",\r\n                recallDate: 0\r\n            });\r\n            \r\n            allDrugIds.push(_drugIds[i]);\r\n            drugIdIndex[_drugIds[i]] = allDrugIds.length;\r\n            \r\n            emit DrugBatchCreated(_drugIds[i], _names[i], msg.sender, block.timestamp);\r\n        }\r\n    }\r\n    \r\n    // Cp nht thng tin l thuc (ti u ha)\r\n    function updateDrugBatch(\r\n        string memory _drugId,\r\n        string memory _name,\r\n        string memory _activeIngredient,\r\n        string memory _qualityTestResult\r\n    ) external onlyOwner {\r\n        if (drugBatches[_drugId].createdAt == 0) revert DrugNotFound();\r\n        \r\n        drugBatches[_drugId].name = _name;\r\n        drugBatches[_drugId].activeIngredient = _activeIngredient;\r\n        drugBatches[_drugId].qualityTestResult = _qualityTestResult;\r\n        \r\n        emit DrugBatchUpdated(_drugId, msg.sender, block.timestamp);\r\n    }\r\n    \r\n    // Thu hi l thuc (ti u ha)\r\n    function recallDrugBatch(\r\n        string memory _drugId,\r\n        string memory _reason\r\n    ) external onlyOwner {\r\n        if (drugBatches[_drugId].createdAt == 0) revert DrugNotFound();\r\n        \r\n        drugBatches[_drugId].isRecalled = true;\r\n        drugBatches[_drugId].recallReason = _reason;\r\n        drugBatches[_drugId].recallDate = uint64(block.timestamp);\r\n        \r\n        emit DrugBatchRecalled(_drugId, _reason, msg.sender, block.timestamp);\r\n    }\r\n    \r\n    // Ghi nhn phn phi (ti u ha)\r\n    function recordDistribution(\r\n        string memory _drugId,\r\n        address _to,\r\n        string memory _location,\r\n        string memory _status,\r\n        string memory _notes\r\n    ) external onlyOwner {\r\n        if (drugBatches[_drugId].createdAt == 0) revert DrugNotFound();\r\n        if (drugBatches[_drugId].isRecalled) revert DrugRecalled();\r\n        \r\n        distributionHistory[_drugId].push(DistributionRecord({\r\n            from: msg.sender,\r\n            to: _to,\r\n            timestamp: uint64(block.timestamp),\r\n            location: _location,\r\n            status: _status,\r\n            notes: _notes\r\n        }));\r\n        \r\n        emit DistributionRecorded(_drugId, msg.sender, _to, block.timestamp);\r\n    }\r\n    \r\n    // Batch record distribution  tit kim gas\r\n    function recordDistributionBatch(\r\n        string memory _drugId,\r\n        address[] memory _toAddresses,\r\n        string[] memory _locations,\r\n        string[] memory _statuses,\r\n        string[] memory _notes\r\n    ) external onlyOwner {\r\n        if (drugBatches[_drugId].createdAt == 0) revert DrugNotFound();\r\n        if (drugBatches[_drugId].isRecalled) revert DrugRecalled();\r\n        require(_toAddresses.length == _locations.length && \r\n                _toAddresses.length <= MAX_BATCH_SIZE, \"Invalid batch size\");\r\n        \r\n        for (uint256 i = 0; i < _toAddresses.length; i++) {\r\n            distributionHistory[_drugId].push(DistributionRecord({\r\n                from: msg.sender,\r\n                to: _toAddresses[i],\r\n                timestamp: uint64(block.timestamp),\r\n                location: _locations[i],\r\n                status: _statuses[i],\r\n                notes: _notes[i]\r\n            }));\r\n            \r\n            emit DistributionRecorded(_drugId, msg.sender, _toAddresses[i], block.timestamp);\r\n        }\r\n    }\r\n    \r\n    // Ly thng tin l thuc (ti u ha return)\r\n    function getDrugBatch(string memory _drugId) external view returns (\r\n        string memory,\r\n        string memory,\r\n        string memory,\r\n        string memory,\r\n        string memory,\r\n        uint256,\r\n        uint256,\r\n        string memory,\r\n        string memory,\r\n        address,\r\n        uint256,\r\n        bool,\r\n        bool,\r\n        string memory,\r\n        uint256\r\n    ) {\r\n        DrugBatch memory batch = drugBatches[_drugId];\r\n        return (\r\n            batch.drugId,\r\n            batch.name,\r\n            batch.activeIngredient,\r\n            batch.manufacturerId,\r\n            batch.batchNumber,\r\n            uint256(batch.productionDate),\r\n            uint256(batch.expiryDate),\r\n            batch.qualityTestResult,\r\n            batch.qrCodeData,\r\n            batch.createdBy,\r\n            uint256(batch.createdAt),\r\n            batch.isActive,\r\n            batch.isRecalled,\r\n            batch.recallReason,\r\n            uint256(batch.recallDate)\r\n        );\r\n    }\r\n    \r\n    // Ly lch s phn phi (ti u ha)\r\n    function getDistributionHistory(string memory _drugId) external view returns (\r\n        address[] memory,\r\n        address[] memory,\r\n        uint256[] memory,\r\n        string[] memory,\r\n        string[] memory,\r\n        string[] memory\r\n    ) {\r\n        DistributionRecord[] memory records = distributionHistory[_drugId];\r\n        uint256 length = records.length;\r\n        \r\n        address[] memory froms = new address[](length);\r\n        address[] memory tos = new address[](length);\r\n        uint256[] memory timestamps = new uint256[](length);\r\n        string[] memory locations = new string[](length);\r\n        string[] memory statuses = new string[](length);\r\n        string[] memory notes = new string[](length);\r\n        \r\n        // Unchecked loop  tit kim gas ( kim tra length)\r\n        unchecked {\r\n            for (uint256 i = 0; i < length; i++) {\r\n                froms[i] = records[i].from;\r\n                tos[i] = records[i].to;\r\n                timestamps[i] = uint256(records[i].timestamp);\r\n                locations[i] = records[i].location;\r\n                statuses[i] = records[i].status;\r\n                notes[i] = records[i].notes;\r\n            }\r\n        }\r\n        \r\n        return (froms, tos, timestamps, locations, statuses, notes);\r\n    }\r\n    \r\n    // Ly tng s l thuc\r\n    function getTotalDrugBatches() external view returns (uint256) {\r\n        return allDrugIds.length;\r\n    }\r\n    \r\n    // Kim tra l thuc c tn ti khng (ti u ha)\r\n    function drugBatchExists(string memory _drugId) external view returns (bool) {\r\n        return drugBatches[_drugId].createdAt > 0;\r\n    }\r\n    \r\n    // Ly tt c drug IDs (ti u ha vi pagination)\r\n    function getAllDrugIds() external view returns (string[] memory) {\r\n        return allDrugIds;\r\n    }\r\n    \r\n    // Ly drug IDs vi pagination  trnh gas limit\r\n    function getDrugIdsPaginated(uint256 _offset, uint256 _limit) external view returns (\r\n        string[] memory drugIds,\r\n        uint256 total\r\n    ) {\r\n        total = allDrugIds.length;\r\n        if (_offset >= total) {\r\n            return (new string[](0), total);\r\n        }\r\n        \r\n        uint256 end = _offset + _limit;\r\n        if (end > total) {\r\n            end = total;\r\n        }\r\n        \r\n        uint256 length = end - _offset;\r\n        drugIds = new string[](length);\r\n        \r\n        unchecked {\r\n            for (uint256 i = 0; i < length; i++) {\r\n                drugIds[i] = allDrugIds[_offset + i];\r\n            }\r\n        }\r\n        \r\n        return (drugIds, total);\r\n    }\r\n    \r\n    // Kim tra tnh hp l ca l thuc (ti u ha)\r\n    function verifyDrugBatch(string memory _drugId) external view returns (\r\n        bool isValid,\r\n        bool isExpired,\r\n        bool isRecalled,\r\n        string memory status\r\n    ) {\r\n        DrugBatch memory batch = drugBatches[_drugId];\r\n        \r\n        if (batch.createdAt == 0) {\r\n            return (false, false, false, \"Not Found\");\r\n        }\r\n        \r\n        bool expired = block.timestamp > uint256(batch.expiryDate);\r\n        bool recalled = batch.isRecalled;\r\n        \r\n        string memory currentStatus;\r\n        if (recalled) {\r\n            currentStatus = \"Recalled\";\r\n        } else if (expired) {\r\n            currentStatus = \"Expired\";\r\n        } else {\r\n            currentStatus = \"Valid\";\r\n        }\r\n        \r\n        return (!recalled && !expired, expired, recalled, currentStatus);\r\n    }\r\n    \r\n    // Ly thng k tng quan (ti u ha vi unchecked)\r\n    function getContractStats() external view returns (\r\n        uint256 totalBatches,\r\n        uint256 activeBatches,\r\n        uint256 recalledBatches,\r\n        uint256 expiredBatches\r\n    ) {\r\n        totalBatches = allDrugIds.length;\r\n        uint256 active = 0;\r\n        uint256 recalled = 0;\r\n        uint256 expired = 0;\r\n        \r\n        unchecked {\r\n            for (uint256 i = 0; i < allDrugIds.length; i++) {\r\n                DrugBatch memory batch = drugBatches[allDrugIds[i]];\r\n                \r\n                if (batch.isRecalled) {\r\n                    recalled++;\r\n                } else if (block.timestamp > uint256(batch.expiryDate)) {\r\n                    expired++;\r\n                } else {\r\n                    active++;\r\n                }\r\n            }\r\n        }\r\n        \r\n        return (totalBatches, active, recalled, expired);\r\n    }\r\n    \r\n    // Tm kim l thuc theo tn (ti u ha)\r\n    function searchDrugBatchesByName(string memory _name) external view returns (string[] memory) {\r\n        string[] memory results = new string[](allDrugIds.length);\r\n        uint256 count = 0;\r\n        bytes32 nameHash = keccak256(bytes(_name));\r\n        \r\n        unchecked {\r\n            for (uint256 i = 0; i < allDrugIds.length; i++) {\r\n                DrugBatch memory batch = drugBatches[allDrugIds[i]];\r\n                if (keccak256(bytes(batch.name)) == nameHash) {\r\n                    results[count] = allDrugIds[i];\r\n                    count++;\r\n                }\r\n            }\r\n        }\r\n        \r\n        // To array vi kch thc chnh xc\r\n        string[] memory finalResults = new string[](count);\r\n        unchecked {\r\n            for (uint256 i = 0; i < count; i++) {\r\n                finalResults[i] = results[i];\r\n            }\r\n        }\r\n        \r\n        return finalResults;\r\n    }\r\n    \r\n    // Ly lch s phn phi vi pagination (ti u ha)\r\n    function getDistributionHistoryPaginated(\r\n        string memory _drugId,\r\n        uint256 _offset,\r\n        uint256 _limit\r\n    ) external view returns (\r\n        address[] memory,\r\n        address[] memory,\r\n        uint256[] memory,\r\n        string[] memory,\r\n        string[] memory,\r\n        string[] memory,\r\n        uint256 totalRecords\r\n    ) {\r\n        DistributionRecord[] memory records = distributionHistory[_drugId];\r\n        uint256 total = records.length;\r\n        \r\n        if (_offset >= total) {\r\n            address[] memory emptyAddresses = new address[](0);\r\n            string[] memory emptyStrings = new string[](0);\r\n            uint256[] memory emptyUints = new uint256[](0);\r\n            return (emptyAddresses, emptyAddresses, emptyUints, emptyStrings, emptyStrings, emptyStrings, total);\r\n        }\r\n        \r\n        uint256 end = _offset + _limit;\r\n        if (end > total) {\r\n            end = total;\r\n        }\r\n        \r\n        uint256 length = end - _offset;\r\n        \r\n        address[] memory froms = new address[](length);\r\n        address[] memory tos = new address[](length);\r\n        uint256[] memory timestamps = new uint256[](length);\r\n        string[] memory locations = new string[](length);\r\n        string[] memory statuses = new string[](length);\r\n        string[] memory notes = new string[](length);\r\n        \r\n        unchecked {\r\n            for (uint256 i = 0; i < length; i++) {\r\n                uint256 index = _offset + i;\r\n                froms[i] = records[index].from;\r\n                tos[i] = records[index].to;\r\n                timestamps[i] = uint256(records[index].timestamp);\r\n                locations[i] = records[index].location;\r\n                statuses[i] = records[index].status;\r\n                notes[i] = records[index].notes;\r\n            }\r\n        }\r\n        \r\n        return (froms, tos, timestamps, locations, statuses, notes, total);\r\n    }\r\n    \r\n    // Function  ghi nhn vic xc minh\r\n    function recordVerification(string memory _drugId, bool _isValid) external {\r\n        if (drugBatches[_drugId].createdAt == 0) revert DrugNotFound();\r\n        \r\n        emit DrugBatchVerified(_drugId, msg.sender, _isValid, block.timestamp);\r\n    }\r\n}\r\n",
  "sourcePath": "D:\\DACN\\contracts\\DrugTraceability.sol",
  "compiler": {
    "name": "solc",
    "version": "0.8.19+commit.7dd6d404.Emscripten.clang"
  },
  "schemaVersion": "3.4.16",
  "updatedAt": "2025-11-19T18:28:10.277Z",
  "devdoc": {
    "kind": "dev",
    "methods": {},
    "version": 1
  },
  "userdoc": {
    "kind": "user",
    "methods": {},
    "version": 1
  }
}